{
  "contractName": "FiatContractDebug",
  "abi": [
    {
      "constant": true,
      "inputs": [
        {
          "name": "_id",
          "type": "uint256"
        }
      ],
      "name": "ETH",
      "outputs": [
        {
          "name": "",
          "type": "uint256"
        }
      ],
      "payable": false,
      "stateMutability": "view",
      "type": "function"
    },
    {
      "constant": true,
      "inputs": [
        {
          "name": "_id",
          "type": "uint256"
        }
      ],
      "name": "USD",
      "outputs": [
        {
          "name": "",
          "type": "uint256"
        }
      ],
      "payable": false,
      "stateMutability": "view",
      "type": "function"
    },
    {
      "constant": true,
      "inputs": [
        {
          "name": "_id",
          "type": "uint256"
        }
      ],
      "name": "EUR",
      "outputs": [
        {
          "name": "",
          "type": "uint256"
        }
      ],
      "payable": false,
      "stateMutability": "view",
      "type": "function"
    },
    {
      "constant": true,
      "inputs": [
        {
          "name": "_id",
          "type": "uint256"
        }
      ],
      "name": "GBP",
      "outputs": [
        {
          "name": "",
          "type": "uint256"
        }
      ],
      "payable": false,
      "stateMutability": "view",
      "type": "function"
    },
    {
      "constant": true,
      "inputs": [
        {
          "name": "_id",
          "type": "uint256"
        }
      ],
      "name": "updatedAt",
      "outputs": [
        {
          "name": "",
          "type": "uint256"
        }
      ],
      "payable": false,
      "stateMutability": "view",
      "type": "function"
    }
  ],
  "bytecode": "0x608060405234801561001057600080fd5b5061022e806100206000396000f30060806040526004361061006d576000357c0100000000000000000000000000000000000000000000000000000000900463ffffffff1680630c560c64146100725780635a8ef28a146100b357806367f01c04146100f4578063c818faec14610135578063d67ae54d14610176575b600080fd5b34801561007e57600080fd5b5061009d600480360381019080803590602001909291905050506101b7565b6040518082815260200191505060405180910390f35b3480156100bf57600080fd5b506100de600480360381019080803590602001909291905050506101c6565b6040518082815260200191505060405180910390f35b34801561010057600080fd5b5061011f600480360381019080803590602001909291905050506101d5565b6040518082815260200191505060405180910390f35b34801561014157600080fd5b50610160600480360381019080803590602001909291905050506101e4565b6040518082815260200191505060405180910390f35b34801561018257600080fd5b506101a1600480360381019080803590602001909291905050506101f3565b6040518082815260200191505060405180910390f35b600081620f4240019050919050565b600081620f4240019050919050565b600081620f4240019050919050565b600081620f4240019050919050565b600081620f42400190509190505600a165627a7a72305820ca06e7aec9213238f3f6d5d253d3babbe618ad803cbb2785bd50d9328db4e7040029",
  "source": "pragma solidity 0.4.23;\n\ncontract FiatContract {\n    function ETH(uint _id) public constant returns (uint256);\n    function USD(uint _id) public constant returns (uint256);\n    function EUR(uint _id) public constant returns (uint256);\n    function GBP(uint _id) public constant returns (uint256);\n    function updatedAt(uint _id) public constant returns (uint);\n}\n\ncontract FiatContractDebug is FiatContract {\n    // Adding the id in order to remove the unused variable warning\n    function ETH(uint _id) public constant returns (uint256) {\n        return 1000000 + _id;\n    }\n\n    function USD(uint _id) public constant returns (uint256) {\n        return 1000000 + _id;\n    }\n\n    function EUR(uint _id) public constant returns (uint256) {\n        return 1000000 + _id;\n    }\n\n    function GBP(uint _id) public constant returns (uint256) {\n        return 1000000 + _id;\n    }\n\n    function updatedAt(uint _id) public constant returns (uint) {\n        return 1000000 + _id;\n    }\n}",
  "sourcePath": "/home/ivanasen/Code/smart-tickets/contracts/FiatContract.sol",
  "compiler": {
    "name": "solc",
    "version": "0.4.23+commit.124ca40d.Emscripten.clang"
  },
  "schemaVersion": "2.0.0",
  "updatedAt": "2018-05-03T08:59:46.144Z"
}