{
  "contractName": "FiatContractTest",
  "abi": [
    {
      "constant": true,
      "inputs": [
        {
          "name": "_id",
          "type": "uint256"
        }
      ],
      "name": "ETH",
      "outputs": [
        {
          "name": "",
          "type": "uint256"
        }
      ],
      "payable": false,
      "stateMutability": "view",
      "type": "function"
    },
    {
      "constant": true,
      "inputs": [
        {
          "name": "_id",
          "type": "uint256"
        }
      ],
      "name": "USD",
      "outputs": [
        {
          "name": "",
          "type": "uint256"
        }
      ],
      "payable": false,
      "stateMutability": "view",
      "type": "function"
    },
    {
      "constant": true,
      "inputs": [
        {
          "name": "_id",
          "type": "uint256"
        }
      ],
      "name": "EUR",
      "outputs": [
        {
          "name": "",
          "type": "uint256"
        }
      ],
      "payable": false,
      "stateMutability": "view",
      "type": "function"
    },
    {
      "constant": true,
      "inputs": [
        {
          "name": "_id",
          "type": "uint256"
        }
      ],
      "name": "GBP",
      "outputs": [
        {
          "name": "",
          "type": "uint256"
        }
      ],
      "payable": false,
      "stateMutability": "view",
      "type": "function"
    },
    {
      "constant": true,
      "inputs": [
        {
          "name": "_id",
          "type": "uint256"
        }
      ],
      "name": "updatedAt",
      "outputs": [
        {
          "name": "",
          "type": "uint256"
        }
      ],
      "payable": false,
      "stateMutability": "view",
      "type": "function"
    }
  ],
  "bytecode": "0x6060604052341561000f57600080fd5b60c78061001d6000396000f30060606040526004361060665763ffffffff7c01000000000000000000000000000000000000000000000000000000006000350416630c560c648114606b5780635a8ef28a14606b57806367f01c0414606b578063c818faec14606b578063d67ae54d14606b575b600080fd5b3415607557600080fd5b607e6004356090565b60405190815260200160405180910390f35b50650c206898d555905600a165627a7a72305820a36b54b8ed6e989a9270bb1e03d3ccc6fed94a4db73e0a739b6abb9c26acfdc90029",
  "source": "pragma solidity ^0.4.19;\n\ncontract FiatContract {\n    function ETH(uint _id) public constant returns (uint256);\n    function USD(uint _id) public constant returns (uint256);\n    function EUR(uint _id) public constant returns (uint256);\n    function GBP(uint _id) public constant returns (uint256);\n    function updatedAt(uint _id) public constant returns (uint);\n}\n\ncontract FiatContractTest is FiatContract {\n    function ETH(uint _id) public constant returns (uint256) {\n        return 13333333333333;\n    }\n    \n    function USD(uint _id) public constant returns (uint256) {\n        return 13333333333333;\n    }\n    \n    function EUR(uint _id) public constant returns (uint256) {\n        return 13333333333333;\n    }\n    \n    function GBP(uint _id) public constant returns (uint256) {\n        return 13333333333333; \n    }\n    \n    function updatedAt(uint _id) public constant returns (uint) {\n        return 13333333333333;\n    }\n}",
  "sourcePath": "/home/ivanasen/Code/smart-tickets/contracts/FiatContract.sol",
  "compiler": {
    "name": "solc",
    "version": "0.4.19+commit.c4cbbb05.Emscripten.clang"
  },
  "schemaVersion": "2.0.0",
  "updatedAt": "2018-03-09T09:43:20.155Z"
}