{
  "contractName": "SmartTickets",
  "abi": [
    {
      "constant": true,
      "inputs": [],
      "name": "cfoAddress",
      "outputs": [
        {
          "name": "",
          "type": "address"
        }
      ],
      "payable": false,
      "stateMutability": "view",
      "type": "function"
    },
    {
      "constant": true,
      "inputs": [],
      "name": "ceoAddress",
      "outputs": [
        {
          "name": "",
          "type": "address"
        }
      ],
      "payable": false,
      "stateMutability": "view",
      "type": "function"
    },
    {
      "constant": false,
      "inputs": [
        {
          "name": "_admin",
          "type": "address"
        }
      ],
      "name": "removeAdmin",
      "outputs": [],
      "payable": false,
      "stateMutability": "nonpayable",
      "type": "function"
    },
    {
      "constant": false,
      "inputs": [
        {
          "name": "_newCEO",
          "type": "address"
        }
      ],
      "name": "setCEO",
      "outputs": [],
      "payable": false,
      "stateMutability": "nonpayable",
      "type": "function"
    },
    {
      "constant": false,
      "inputs": [
        {
          "name": "_newCOO",
          "type": "address"
        }
      ],
      "name": "setCOO",
      "outputs": [],
      "payable": false,
      "stateMutability": "nonpayable",
      "type": "function"
    },
    {
      "constant": false,
      "inputs": [
        {
          "name": "_newCFO",
          "type": "address"
        }
      ],
      "name": "setCFO",
      "outputs": [],
      "payable": false,
      "stateMutability": "nonpayable",
      "type": "function"
    },
    {
      "constant": true,
      "inputs": [],
      "name": "newContractAddress",
      "outputs": [
        {
          "name": "",
          "type": "address"
        }
      ],
      "payable": false,
      "stateMutability": "view",
      "type": "function"
    },
    {
      "constant": false,
      "inputs": [
        {
          "name": "_admin",
          "type": "address"
        }
      ],
      "name": "addAdmin",
      "outputs": [],
      "payable": false,
      "stateMutability": "nonpayable",
      "type": "function"
    },
    {
      "constant": false,
      "inputs": [
        {
          "name": "_v2Address",
          "type": "address"
        }
      ],
      "name": "setNewAddress",
      "outputs": [],
      "payable": false,
      "stateMutability": "nonpayable",
      "type": "function"
    },
    {
      "constant": true,
      "inputs": [],
      "name": "owner",
      "outputs": [
        {
          "name": "",
          "type": "address"
        }
      ],
      "payable": false,
      "stateMutability": "view",
      "type": "function"
    },
    {
      "constant": true,
      "inputs": [],
      "name": "cooAddress",
      "outputs": [
        {
          "name": "",
          "type": "address"
        }
      ],
      "payable": false,
      "stateMutability": "view",
      "type": "function"
    },
    {
      "constant": false,
      "inputs": [
        {
          "name": "newOwner",
          "type": "address"
        }
      ],
      "name": "transferOwnership",
      "outputs": [],
      "payable": false,
      "stateMutability": "nonpayable",
      "type": "function"
    },
    {
      "inputs": [],
      "payable": false,
      "stateMutability": "nonpayable",
      "type": "constructor"
    },
    {
      "anonymous": false,
      "inputs": [
        {
          "indexed": false,
          "name": "id",
          "type": "uint256"
        },
        {
          "indexed": false,
          "name": "date",
          "type": "uint256"
        },
        {
          "indexed": false,
          "name": "metaDescriptionHash",
          "type": "bytes"
        },
        {
          "indexed": false,
          "name": "creator",
          "type": "address"
        }
      ],
      "name": "EventCreation",
      "type": "event"
    },
    {
      "anonymous": false,
      "inputs": [
        {
          "indexed": false,
          "name": "id",
          "type": "uint256"
        }
      ],
      "name": "EventCancelation",
      "type": "event"
    },
    {
      "anonymous": false,
      "inputs": [
        {
          "indexed": false,
          "name": "ticketTypeId",
          "type": "uint256"
        },
        {
          "indexed": false,
          "name": "eventId",
          "type": "uint256"
        },
        {
          "indexed": false,
          "name": "price",
          "type": "uint256"
        },
        {
          "indexed": false,
          "name": "supply",
          "type": "uint256"
        },
        {
          "indexed": false,
          "name": "refundable",
          "type": "uint8"
        }
      ],
      "name": "TicketTypeCreation",
      "type": "event"
    },
    {
      "anonymous": false,
      "inputs": [
        {
          "indexed": false,
          "name": "ticketId",
          "type": "uint256"
        },
        {
          "indexed": false,
          "name": "buyer",
          "type": "address"
        }
      ],
      "name": "TicketPurchase",
      "type": "event"
    },
    {
      "anonymous": false,
      "inputs": [
        {
          "indexed": false,
          "name": "ticketId",
          "type": "uint256"
        },
        {
          "indexed": false,
          "name": "refunder",
          "type": "address"
        },
        {
          "indexed": false,
          "name": "eventId",
          "type": "uint256"
        }
      ],
      "name": "TicketRefund",
      "type": "event"
    },
    {
      "anonymous": false,
      "inputs": [
        {
          "indexed": false,
          "name": "to",
          "type": "address"
        },
        {
          "indexed": false,
          "name": "amount",
          "type": "uint256"
        }
      ],
      "name": "Withdrawal",
      "type": "event"
    },
    {
      "anonymous": false,
      "inputs": [
        {
          "indexed": false,
          "name": "newContract",
          "type": "address"
        }
      ],
      "name": "ContractUpgrade",
      "type": "event"
    },
    {
      "anonymous": false,
      "inputs": [
        {
          "indexed": true,
          "name": "previousOwner",
          "type": "address"
        },
        {
          "indexed": true,
          "name": "newOwner",
          "type": "address"
        }
      ],
      "name": "OwnershipTransferred",
      "type": "event"
    },
    {
      "constant": false,
      "inputs": [
        {
          "name": "_newAddress",
          "type": "address"
        }
      ],
      "name": "setFiatContractAddress",
      "outputs": [],
      "payable": false,
      "stateMutability": "nonpayable",
      "type": "function"
    },
    {
      "constant": true,
      "inputs": [
        {
          "name": "_owner",
          "type": "address"
        }
      ],
      "name": "balanceOf",
      "outputs": [
        {
          "name": "",
          "type": "uint256"
        }
      ],
      "payable": false,
      "stateMutability": "view",
      "type": "function"
    },
    {
      "constant": true,
      "inputs": [
        {
          "name": "_owner",
          "type": "address"
        }
      ],
      "name": "getTicketsForOwner",
      "outputs": [
        {
          "name": "",
          "type": "uint256[]"
        }
      ],
      "payable": false,
      "stateMutability": "view",
      "type": "function"
    },
    {
      "constant": true,
      "inputs": [
        {
          "name": "_owner",
          "type": "address"
        },
        {
          "name": "_index",
          "type": "uint256"
        }
      ],
      "name": "getTicketIdForOwner",
      "outputs": [
        {
          "name": "",
          "type": "uint256"
        }
      ],
      "payable": false,
      "stateMutability": "view",
      "type": "function"
    },
    {
      "constant": true,
      "inputs": [],
      "name": "getUsdCourse",
      "outputs": [
        {
          "name": "",
          "type": "uint256"
        }
      ],
      "payable": false,
      "stateMutability": "view",
      "type": "function"
    },
    {
      "constant": false,
      "inputs": [
        {
          "name": "_ticketTypeId",
          "type": "uint256"
        }
      ],
      "name": "buyTicket",
      "outputs": [],
      "payable": true,
      "stateMutability": "payable",
      "type": "function"
    },
    {
      "constant": false,
      "inputs": [
        {
          "name": "_timestamp",
          "type": "uint256"
        },
        {
          "name": "_metaDescriptionHash",
          "type": "bytes"
        },
        {
          "name": "_ticketPricesInUSDCents",
          "type": "uint256[]"
        },
        {
          "name": "_ticketSupplies",
          "type": "uint256[]"
        },
        {
          "name": "_ticketRefundables",
          "type": "uint8[]"
        }
      ],
      "name": "createEvent",
      "outputs": [],
      "payable": false,
      "stateMutability": "nonpayable",
      "type": "function"
    },
    {
      "constant": false,
      "inputs": [
        {
          "name": "_eventId",
          "type": "uint256"
        },
        {
          "name": "_priceInUSDCents",
          "type": "uint256"
        },
        {
          "name": "_initialSupply",
          "type": "uint256"
        },
        {
          "name": "_refundable",
          "type": "uint8"
        }
      ],
      "name": "addTicketForEvent",
      "outputs": [],
      "payable": false,
      "stateMutability": "nonpayable",
      "type": "function"
    },
    {
      "constant": false,
      "inputs": [
        {
          "name": "_ticketId",
          "type": "uint256"
        }
      ],
      "name": "refundTicket",
      "outputs": [],
      "payable": false,
      "stateMutability": "nonpayable",
      "type": "function"
    },
    {
      "constant": false,
      "inputs": [
        {
          "name": "_eventId",
          "type": "uint256"
        }
      ],
      "name": "cancelEvent",
      "outputs": [],
      "payable": false,
      "stateMutability": "nonpayable",
      "type": "function"
    },
    {
      "constant": false,
      "inputs": [
        {
          "name": "_eventId",
          "type": "uint256"
        }
      ],
      "name": "withdrawalEarningsForEvent",
      "outputs": [],
      "payable": false,
      "stateMutability": "nonpayable",
      "type": "function"
    },
    {
      "constant": false,
      "inputs": [
        {
          "name": "_id",
          "type": "uint256"
        },
        {
          "name": "_timestamp",
          "type": "uint256"
        }
      ],
      "name": "changeEventDate",
      "outputs": [],
      "payable": false,
      "stateMutability": "nonpayable",
      "type": "function"
    },
    {
      "constant": false,
      "inputs": [
        {
          "name": "_id",
          "type": "uint256"
        },
        {
          "name": "_hash",
          "type": "bytes"
        }
      ],
      "name": "changeEventMetaDescriptionHash",
      "outputs": [],
      "payable": false,
      "stateMutability": "nonpayable",
      "type": "function"
    },
    {
      "constant": true,
      "inputs": [],
      "name": "getEventCount",
      "outputs": [
        {
          "name": "",
          "type": "uint256"
        }
      ],
      "payable": false,
      "stateMutability": "view",
      "type": "function"
    },
    {
      "constant": true,
      "inputs": [
        {
          "name": "_eventId",
          "type": "uint256"
        }
      ],
      "name": "getTicketTypesCountForEvent",
      "outputs": [
        {
          "name": "count",
          "type": "uint256"
        }
      ],
      "payable": false,
      "stateMutability": "view",
      "type": "function"
    },
    {
      "constant": false,
      "inputs": [
        {
          "name": "_level",
          "type": "uint8"
        },
        {
          "name": "_newPrice",
          "type": "uint256"
        }
      ],
      "name": "setPromotionLevelPrice",
      "outputs": [],
      "payable": false,
      "stateMutability": "nonpayable",
      "type": "function"
    },
    {
      "constant": false,
      "inputs": [
        {
          "name": "_eventId",
          "type": "uint256"
        },
        {
          "name": "_level",
          "type": "uint8"
        },
        {
          "name": "_numDays",
          "type": "uint8"
        }
      ],
      "name": "promoteEvent",
      "outputs": [],
      "payable": true,
      "stateMutability": "payable",
      "type": "function"
    },
    {
      "constant": true,
      "inputs": [
        {
          "name": "_level",
          "type": "uint8"
        }
      ],
      "name": "getPromotionLevelPrice",
      "outputs": [
        {
          "name": "",
          "type": "uint256"
        }
      ],
      "payable": false,
      "stateMutability": "view",
      "type": "function"
    },
    {
      "constant": true,
      "inputs": [
        {
          "name": "_ticketTypeId",
          "type": "uint256"
        }
      ],
      "name": "getTicketType",
      "outputs": [
        {
          "name": "ticketTypeId",
          "type": "uint256"
        },
        {
          "name": "eventId",
          "type": "uint256"
        },
        {
          "name": "price",
          "type": "uint256"
        },
        {
          "name": "initialSupply",
          "type": "uint256"
        },
        {
          "name": "currentSupply",
          "type": "uint256"
        },
        {
          "name": "refundable",
          "type": "uint8"
        }
      ],
      "payable": false,
      "stateMutability": "view",
      "type": "function"
    },
    {
      "constant": true,
      "inputs": [
        {
          "name": "_eventId",
          "type": "uint256"
        }
      ],
      "name": "getEvent",
      "outputs": [
        {
          "name": "timestamp",
          "type": "uint256"
        },
        {
          "name": "metaDescriptionHash",
          "type": "bytes"
        },
        {
          "name": "cancelled",
          "type": "uint8"
        },
        {
          "name": "ticketTypeCount",
          "type": "uint256"
        },
        {
          "name": "earnings",
          "type": "uint256"
        },
        {
          "name": "promotionLevel",
          "type": "uint8"
        },
        {
          "name": "promotionExpirationDate",
          "type": "uint256"
        }
      ],
      "payable": false,
      "stateMutability": "view",
      "type": "function"
    },
    {
      "constant": true,
      "inputs": [
        {
          "name": "_creator",
          "type": "address"
        }
      ],
      "name": "getEventIdsForCreator",
      "outputs": [
        {
          "name": "",
          "type": "uint256[]"
        }
      ],
      "payable": false,
      "stateMutability": "view",
      "type": "function"
    },
    {
      "constant": true,
      "inputs": [
        {
          "name": "_ticketId",
          "type": "uint256"
        }
      ],
      "name": "getTicketTypeForTicket",
      "outputs": [
        {
          "name": "",
          "type": "uint256"
        },
        {
          "name": "",
          "type": "uint256"
        },
        {
          "name": "",
          "type": "uint256"
        },
        {
          "name": "",
          "type": "uint256"
        },
        {
          "name": "",
          "type": "uint256"
        },
        {
          "name": "",
          "type": "uint8"
        }
      ],
      "payable": false,
      "stateMutability": "view",
      "type": "function"
    },
    {
      "constant": true,
      "inputs": [
        {
          "name": "_eventId",
          "type": "uint256"
        },
        {
          "name": "_index",
          "type": "uint256"
        }
      ],
      "name": "getTicketTypeForEvent",
      "outputs": [
        {
          "name": "",
          "type": "uint256"
        },
        {
          "name": "",
          "type": "uint256"
        },
        {
          "name": "",
          "type": "uint256"
        },
        {
          "name": "",
          "type": "uint256"
        },
        {
          "name": "",
          "type": "uint256"
        },
        {
          "name": "",
          "type": "uint8"
        }
      ],
      "payable": false,
      "stateMutability": "view",
      "type": "function"
    },
    {
      "constant": true,
      "inputs": [],
      "name": "getTicketTypeCount",
      "outputs": [
        {
          "name": "",
          "type": "uint256"
        }
      ],
      "payable": false,
      "stateMutability": "view",
      "type": "function"
    },
    {
      "constant": true,
      "inputs": [],
      "name": "getOneUSDCentInWei",
      "outputs": [
        {
          "name": "",
          "type": "uint256"
        }
      ],
      "payable": false,
      "stateMutability": "view",
      "type": "function"
    },
    {
      "constant": true,
      "inputs": [
        {
          "name": "_ticketId",
          "type": "uint256"
        },
        {
          "name": "_ticketIdHash",
          "type": "bytes32"
        },
        {
          "name": "_addr",
          "type": "address"
        },
        {
          "name": "_v",
          "type": "uint8"
        },
        {
          "name": "_r",
          "type": "bytes32"
        },
        {
          "name": "_s",
          "type": "bytes32"
        }
      ],
      "name": "verifyTicket",
      "outputs": [
        {
          "name": "",
          "type": "bool"
        }
      ],
      "payable": false,
      "stateMutability": "view",
      "type": "function"
    }
  ],
  "bytecode": "0x6080604052732cde56e5c8235d6360ccbb0c57ce248ca9c80909600760006101000a81548173ffffffffffffffffffffffffffffffffffffffff021916908373ffffffffffffffffffffffffffffffffffffffff16021790555060006008553480156200006b57600080fd5b5062000076620004cd565b6200008062000513565b336000806101000a81548173ffffffffffffffffffffffffffffffffffffffff021916908373ffffffffffffffffffffffffffffffffffffffff16021790555033600160006101000a81548173ffffffffffffffffffffffffffffffffffffffff021916908373ffffffffffffffffffffffffffffffffffffffff16021790555033600360006101000a81548173ffffffffffffffffffffffffffffffffffffffff021916908373ffffffffffffffffffffffffffffffffffffffff16021790555033600260006101000a81548173ffffffffffffffffffffffffffffffffffffffff021916908373ffffffffffffffffffffffffffffffffffffffff1602179055506001600460003373ffffffffffffffffffffffffffffffffffffffff1673ffffffffffffffffffffffffffffffffffffffff16815260200190815260200160002060006101000a81548160ff021916908315150217905550600760009054906101000a900473ffffffffffffffffffffffffffffffffffffffff16600660006101000a81548173ffffffffffffffffffffffffffffffffffffffff021916908373ffffffffffffffffffffffffffffffffffffffff16021790555060c060405190810160405280600081526020016020604051908101604052806000815250815260200160008152602001600060ff168152602001600060038111156200028657fe5b815260200160008152509150600b8290806001815401808255809150509060018203906000526020600020906005020160009091929091909150600082015181600001556020820151816001019080519060200190620002e892919062000546565b506040820151816002015560608201518160030160006101000a81548160ff021916908360ff16021790555060808201518160030160016101000a81548160ff021916908360038111156200033957fe5b021790555060a0820151816004015550505060a06040519081016040528060008152602001600081526020016000815260200160008152602001600060ff168152509050600a81908060018154018082558091505090600182039060005260206000209060050201600090919290919091506000820151816000015560208201518160010155604082015181600201556060820151816003015560808201518160040160006101000a81548160ff021916908360ff1602179055505050506200041d6001600c54620004ae6401000000000262003742179091906401000000009004565b600c81905550600a60096000600160038111156200043757fe5b60ff1660ff16815260200190815260200160002081905550601460096000600260038111156200046357fe5b60ff1660ff16815260200190815260200160002081905550601e600960006003808111156200048e57fe5b60ff1660ff168152602001908152602001600020819055505050620005f5565b6000808284019050838110151515620004c357fe5b8091505092915050565b60c060405190810160405280600081526020016060815260200160008152602001600060ff168152602001600060038111156200050657fe5b8152602001600081525090565b60a06040519081016040528060008152602001600081526020016000815260200160008152602001600060ff1681525090565b828054600181600116156101000203166002900490600052602060002090601f016020900481019282601f106200058957805160ff1916838001178555620005ba565b82800160010185558215620005ba579182015b82811115620005b95782518255916020019190600101906200059c565b5b509050620005c99190620005cd565b5090565b620005f291905b80821115620005ee576000816000905550600101620005d4565b5090565b90565b6139fe80620006056000396000f3006080604052600436106101d8576000357c0100000000000000000000000000000000000000000000000000000000900463ffffffff1680630519ce79146101dd5780630a0f81681461023457806313bea5ab1461028b57806313edec8414610318578063163e0f46146103825780631785f53c146103ec57806327d7874c1461042f5780632ba73c1514610472578063347cdb15146104b55780633f69babd146104e0578063443049791461050d57806345243120146105475780634e0a33791461058a5780635398a62c146105cd57806366008bfb146105fa57806367dd74ca146106255780636af04a57146106455780636d1884e01461069c578063704802751461077857806370a08231146107bb5780637158798814610812578063757741001461085557806384abfd16146108825780638842c5d3146108c35780638c95e5651461095b5780638da5cb5b146109f75780638f4332de14610a4e57806399c9f47414610ac2578063aa8f17d414610b23578063b00bd08b14610bbb578063b047fb5014610be6578063d0c494db14610c3d578063d4175e5c14610c82578063d6b3eeef14610cbc578063d9e48f5c14610cf3578063e2a5f2be14610d1e578063f2fde38b14610d62578063f35ec83014610da5575b600080fd5b3480156101e957600080fd5b506101f2610df3565b604051808273ffffffffffffffffffffffffffffffffffffffff1673ffffffffffffffffffffffffffffffffffffffff16815260200191505060405180910390f35b34801561024057600080fd5b50610249610e19565b604051808273ffffffffffffffffffffffffffffffffffffffff1673ffffffffffffffffffffffffffffffffffffffff16815260200191505060405180910390f35b34801561029757600080fd5b5061031660048036038101908080359060200190929190803590602001908201803590602001919091929391929390803590602001908201803590602001919091929391929390803590602001908201803590602001919091929391929390803590602001908201803590602001919091929391929390505050610e3f565b005b34801561032457600080fd5b50610343600480360381019080803590602001909291905050506111ad565b604051808781526020018681526020018581526020018481526020018381526020018260ff1660ff168152602001965050505050505060405180910390f35b34801561038e57600080fd5b506103ad600480360381019080803590602001909291905050506111ed565b604051808781526020018681526020018581526020018481526020018381526020018260ff1660ff168152602001965050505050505060405180910390f35b3480156103f857600080fd5b5061042d600480360381019080803573ffffffffffffffffffffffffffffffffffffffff169060200190929190505050611254565b005b34801561043b57600080fd5b50610470600480360381019080803573ffffffffffffffffffffffffffffffffffffffff1690602001909291905050506113bb565b005b34801561047e57600080fd5b506104b3600480360381019080803573ffffffffffffffffffffffffffffffffffffffff169060200190929190505050611497565b005b3480156104c157600080fd5b506104ca611573565b6040518082815260200191505060405180910390f35b3480156104ec57600080fd5b5061050b60048036038101908080359060200190929190505050611647565b005b34801561051957600080fd5b50610545600480360381019080803560ff16906020019092919080359060200190929190505050611742565b005b34801561055357600080fd5b50610588600480360381019080803573ffffffffffffffffffffffffffffffffffffffff169060200190929190505050611994565b005b34801561059657600080fd5b506105cb600480360381019080803573ffffffffffffffffffffffffffffffffffffffff169060200190929190505050611b25565b005b3480156105d957600080fd5b506105f860048036038101908080359060200190929190505050611c01565b005b34801561060657600080fd5b5061060f611d7f565b6040518082815260200191505060405180910390f35b61064360048036038101908080359060200190929190505050611d8f565b005b34801561065157600080fd5b5061065a6120df565b604051808273ffffffffffffffffffffffffffffffffffffffff1673ffffffffffffffffffffffffffffffffffffffff16815260200191505060405180910390f35b3480156106a857600080fd5b506106c760048036038101908080359060200190929190505050612105565b60405180888152602001806020018760ff1660ff1681526020018681526020018581526020018460ff1660ff168152602001838152602001828103825288818151815260200191508051906020019080838360005b8381101561073757808201518184015260208101905061071c565b50505050905090810190601f1680156107645780820380516001836020036101000a031916815260200191505b509850505050505050505060405180910390f35b34801561078457600080fd5b506107b9600480360381019080803573ffffffffffffffffffffffffffffffffffffffff1690602001909291905050506122ac565b005b3480156107c757600080fd5b506107fc600480360381019080803573ffffffffffffffffffffffffffffffffffffffff16906020019092919050505061244f565b6040518082815260200191505060405180910390f35b34801561081e57600080fd5b50610853600480360381019080803573ffffffffffffffffffffffffffffffffffffffff16906020019092919050505061249b565b005b34801561086157600080fd5b506108806004803603810190808035906020019092919050505061259e565b005b34801561088e57600080fd5b506108ad6004803603810190808035906020019092919050505061295a565b6040518082815260200191505060405180910390f35b3480156108cf57600080fd5b50610904600480360381019080803573ffffffffffffffffffffffffffffffffffffffff169060200190929190505050612a22565b6040518080602001828103825283818151815260200191508051906020019060200280838360005b8381101561094757808201518184015260208101905061092c565b505050509050019250505060405180910390f35b34801561096757600080fd5b506109dd600480360381019080803590602001909291908035600019169060200190929190803573ffffffffffffffffffffffffffffffffffffffff169060200190929190803560ff16906020019092919080356000191690602001909291908035600019169060200190929190505050612ab9565b604051808215151515815260200191505060405180910390f35b348015610a0357600080fd5b50610a0c612b49565b604051808273ffffffffffffffffffffffffffffffffffffffff1673ffffffffffffffffffffffffffffffffffffffff16815260200191505060405180910390f35b348015610a5a57600080fd5b50610a836004803603810190808035906020019092919080359060200190929190505050612b6e565b604051808781526020018681526020018581526020018481526020018381526020018260ff1660ff168152602001965050505050505060405180910390f35b348015610ace57600080fd5b50610b0d600480360381019080803573ffffffffffffffffffffffffffffffffffffffff16906020019092919080359060200190929190505050612bc6565b6040518082815260200191505060405180910390f35b348015610b2f57600080fd5b50610b64600480360381019080803573ffffffffffffffffffffffffffffffffffffffff169060200190929190505050612c8c565b6040518080602001828103825283818151815260200191508051906020019060200280838360005b83811015610ba7578082015181840152602081019050610b8c565b505050509050019250505060405180910390f35b348015610bc757600080fd5b50610bd0612df8565b6040518082815260200191505060405180910390f35b348015610bf257600080fd5b50610bfb612ecd565b604051808273ffffffffffffffffffffffffffffffffffffffff1673ffffffffffffffffffffffffffffffffffffffff16815260200191505060405180910390f35b348015610c4957600080fd5b50610c8060048036038101908080359060200190929190803590602001908201803590602001919091929391929390505050612ef3565b005b610cba60048036038101908080359060200190929190803560ff169060200190929190803560ff169060200190929190505050612f97565b005b348015610cc857600080fd5b50610cf16004803603810190808035906020019092919080359060200190929190505050613202565b005b348015610cff57600080fd5b50610d086132a8565b6040518082815260200191505060405180910390f35b348015610d2a57600080fd5b50610d4c600480360381019080803560ff1690602001909291905050506132c8565b6040518082815260200191505060405180910390f35b348015610d6e57600080fd5b50610da3600480360381019080803573ffffffffffffffffffffffffffffffffffffffff169060200190929190505050613413565b005b348015610db157600080fd5b50610df1600480360381019080803590602001909291908035906020019092919080359060200190929190803560ff169060200190929190505050613568565b005b600260009054906101000a900473ffffffffffffffffffffffffffffffffffffffff1681565b600160009054906101000a900473ffffffffffffffffffffffffffffffffffffffff1681565b610e47613835565b600080428c111515610e5857600080fd5b600089899050118015610e7057508686905089899050145b8015610e8157508484905089899050145b1515610e8c57600080fd5b60c0604051908101604052808d81526020018c8c8080601f016020809104026020016040519081016040528093929190818152602001838380828437820191505050505050815260200160008152602001600060ff16815260200160006003811115610ef457fe5b8152602001600081525092506001600b8490806001815401808255809150509060018203906000526020600020906005020160009091929091909150600082015181600001556020820151816001019080519060200190610f5692919061387a565b506040820151816002015560608201518160030160006101000a81548160ff021916908360ff16021790555060808201518160030160016101000a81548160ff02191690836003811115610fa657fe5b021790555060a08201518160040155505003915033600f600084815260200190815260200160002060006101000a81548173ffffffffffffffffffffffffffffffffffffffff021916908373ffffffffffffffffffffffffffffffffffffffff16021790555061105f6001601060003373ffffffffffffffffffffffffffffffffffffffff1673ffffffffffffffffffffffffffffffffffffffff1681526020019081526020016000205461374290919063ffffffff16565b601060003373ffffffffffffffffffffffffffffffffffffffff1673ffffffffffffffffffffffffffffffffffffffff168152602001908152602001600020819055507f263b8c982895fbe8f474fd5750a94f9bc7df584aad4f354ed2aef8c32ab8423c828d8d8d3360405180868152602001858152602001806020018373ffffffffffffffffffffffffffffffffffffffff1673ffffffffffffffffffffffffffffffffffffffff16815260200182810382528585828181526020019250808284378201915050965050505050505060405180910390a1600090505b8888905081101561119f57611192828a8a84818110151561115957fe5b90506020020135898985818110151561116e57fe5b90506020020135888886818110151561118357fe5b9050602002013560ff16613568565b808060010191505061113c565b505050505050505050505050565b6000806000806000806000600e60008981526020019081526020016000205490506111d7816111ed565b9650965096509650965096505091939550919395565b6000806000806000806000600a8881548110151561120757fe5b90600052602060002090600502019050879650806000015495508060010154945080600201549350806003015492508060040160009054906101000a900460ff1691505091939550919395565b600360009054906101000a900473ffffffffffffffffffffffffffffffffffffffff1673ffffffffffffffffffffffffffffffffffffffff163373ffffffffffffffffffffffffffffffffffffffff1614806112fd5750600160009054906101000a900473ffffffffffffffffffffffffffffffffffffffff1673ffffffffffffffffffffffffffffffffffffffff163373ffffffffffffffffffffffffffffffffffffffff16145b806113555750600260009054906101000a900473ffffffffffffffffffffffffffffffffffffffff1673ffffffffffffffffffffffffffffffffffffffff163373ffffffffffffffffffffffffffffffffffffffff16145b151561136057600080fd5b6000600460008373ffffffffffffffffffffffffffffffffffffffff1673ffffffffffffffffffffffffffffffffffffffff16815260200190815260200160002060006101000a81548160ff02191690831515021790555050565b600160009054906101000a900473ffffffffffffffffffffffffffffffffffffffff1673ffffffffffffffffffffffffffffffffffffffff163373ffffffffffffffffffffffffffffffffffffffff1614151561141757600080fd5b600073ffffffffffffffffffffffffffffffffffffffff168173ffffffffffffffffffffffffffffffffffffffff161415151561145357600080fd5b80600160006101000a81548173ffffffffffffffffffffffffffffffffffffffff021916908373ffffffffffffffffffffffffffffffffffffffff16021790555050565b600160009054906101000a900473ffffffffffffffffffffffffffffffffffffffff1673ffffffffffffffffffffffffffffffffffffffff163373ffffffffffffffffffffffffffffffffffffffff161415156114f357600080fd5b600073ffffffffffffffffffffffffffffffffffffffff168173ffffffffffffffffffffffffffffffffffffffff161415151561152f57600080fd5b80600360006101000a81548173ffffffffffffffffffffffffffffffffffffffff021916908373ffffffffffffffffffffffffffffffffffffffff16021790555050565b6000600660009054906101000a900473ffffffffffffffffffffffffffffffffffffffff1673ffffffffffffffffffffffffffffffffffffffff16630c560c6460006040518263ffffffff167c010000000000000000000000000000000000000000000000000000000002815260040180828152602001915050602060405180830381600087803b15801561160757600080fd5b505af115801561161b573d6000803e3d6000fd5b505050506040513d602081101561163157600080fd5b8101908080519060200190929190505050905090565b6000813373ffffffffffffffffffffffffffffffffffffffff16600f600083815260200190815260200160002060009054906101000a900473ffffffffffffffffffffffffffffffffffffffff1673ffffffffffffffffffffffffffffffffffffffff161415156116b757600080fd5b600b838154811015156116c657fe5b906000526020600020906005020191504282600001541115156116e857600080fd5b60018260030160006101000a81548160ff021916908360ff1602179055507f14b51db3bb73d9fc2f73ef9a292fe180b35b0ac1d9285a7520e01b7e05b91bf8836040518082815260200191505060405180910390a1505050565b816001600381111561175057fe5b60ff168160ff16148061177457506002600381111561176b57fe5b60ff168160ff16145b8061178f575060038081111561178657fe5b60ff168160ff16145b151561179a57600080fd5b600360009054906101000a900473ffffffffffffffffffffffffffffffffffffffff1673ffffffffffffffffffffffffffffffffffffffff163373ffffffffffffffffffffffffffffffffffffffff1614806118435750600160009054906101000a900473ffffffffffffffffffffffffffffffffffffffff1673ffffffffffffffffffffffffffffffffffffffff163373ffffffffffffffffffffffffffffffffffffffff16145b8061189b5750600260009054906101000a900473ffffffffffffffffffffffffffffffffffffffff1673ffffffffffffffffffffffffffffffffffffffff163373ffffffffffffffffffffffffffffffffffffffff16145b15156118a657600080fd5b600660009054906101000a900473ffffffffffffffffffffffffffffffffffffffff1673ffffffffffffffffffffffffffffffffffffffff16630c560c64836040518263ffffffff167c010000000000000000000000000000000000000000000000000000000002815260040180828152602001915050602060405180830381600087803b15801561193757600080fd5b505af115801561194b573d6000803e3d6000fd5b505050506040513d602081101561196157600080fd5b8101908080519060200190929190505050600960008560ff1660ff16815260200190815260200160002081905550505050565b600360009054906101000a900473ffffffffffffffffffffffffffffffffffffffff1673ffffffffffffffffffffffffffffffffffffffff163373ffffffffffffffffffffffffffffffffffffffff161480611a3d5750600160009054906101000a900473ffffffffffffffffffffffffffffffffffffffff1673ffffffffffffffffffffffffffffffffffffffff163373ffffffffffffffffffffffffffffffffffffffff16145b80611a955750600260009054906101000a900473ffffffffffffffffffffffffffffffffffffffff1673ffffffffffffffffffffffffffffffffffffffff163373ffffffffffffffffffffffffffffffffffffffff16145b1515611aa057600080fd5b80600760006101000a81548173ffffffffffffffffffffffffffffffffffffffff021916908373ffffffffffffffffffffffffffffffffffffffff16021790555080600660006101000a81548173ffffffffffffffffffffffffffffffffffffffff021916908373ffffffffffffffffffffffffffffffffffffffff16021790555050565b600160009054906101000a900473ffffffffffffffffffffffffffffffffffffffff1673ffffffffffffffffffffffffffffffffffffffff163373ffffffffffffffffffffffffffffffffffffffff16141515611b8157600080fd5b600073ffffffffffffffffffffffffffffffffffffffff168173ffffffffffffffffffffffffffffffffffffffff1614151515611bbd57600080fd5b80600260006101000a81548173ffffffffffffffffffffffffffffffffffffffff021916908373ffffffffffffffffffffffffffffffffffffffff16021790555050565b600080823373ffffffffffffffffffffffffffffffffffffffff16600f600083815260200190815260200160002060009054906101000a900473ffffffffffffffffffffffffffffffffffffffff1673ffffffffffffffffffffffffffffffffffffffff16141515611c7257600080fd5b600b84815481101515611c8157fe5b90600052602060002090600502019250428360000154111515611ca357600080fd5b60008360020154111515611cb657600080fd5b82600201549150600083600201819055503373ffffffffffffffffffffffffffffffffffffffff166108fc839081150290604051600060405180830381858888f19350505050158015611d0d573d6000803e3d6000fd5b507f7fcf532c15f0a6db0bd6d0e038bea71d30d808c7d98cb3bf7268a95bf5081b653383604051808373ffffffffffffffffffffffffffffffffffffffff1673ffffffffffffffffffffffffffffffffffffffff1681526020018281526020019250505060405180910390a150505050565b60006001600a8054905003905090565b6000806000600a84815481101515611da357fe5b90600052602060002090600502019250600b8360000154815481101515611dc657fe5b906000526020600020906005020191506000836000015414151515611dea57600080fd5b42600b8460000154815481101515611dfe57fe5b906000526020600020906005020160000154111515611e1c57600080fd5b60008360030154111515611e2f57600080fd5b600660009054906101000a900473ffffffffffffffffffffffffffffffffffffffff1673ffffffffffffffffffffffffffffffffffffffff16630c560c646008546040518263ffffffff167c010000000000000000000000000000000000000000000000000000000002815260040180828152602001915050602060405180830381600087803b158015611ec257600080fd5b505af1158015611ed6573d6000803e3d6000fd5b505050506040513d6020811015611eec57600080fd5b810190808051906020019092919050505083600101540234141515611f1057600080fd5b611f2734836002015461374290919063ffffffff16565b8260020181905550611f476001846003015461376090919063ffffffff16565b83600301819055503360116000600c54815260200190815260200160002060006101000a81548173ffffffffffffffffffffffffffffffffffffffff021916908373ffffffffffffffffffffffffffffffffffffffff16021790555083600e6000600c54815260200190815260200160002081905550611fc63361244f565b9050601260003373ffffffffffffffffffffffffffffffffffffffff1673ffffffffffffffffffffffffffffffffffffffff168152602001908152602001600020600c5490806001815401808255809150509060018203906000526020600020016000909192909190915055508060136000600c548152602001908152602001600020819055506120636001600c5461374290919063ffffffff16565b600c819055507f23185667fbe4fe155ce70ec5978bcaaccf7b774f88cfb256ddef7d092c92e0216001600c540333604051808381526020018273ffffffffffffffffffffffffffffffffffffffff1673ffffffffffffffffffffffffffffffffffffffff1681526020019250505060405180910390a150505050565b600560009054906101000a900473ffffffffffffffffffffffffffffffffffffffff1681565b60006060600080600080600080600073ffffffffffffffffffffffffffffffffffffffff16600f60008b815260200190815260200160002060009054906101000a900473ffffffffffffffffffffffffffffffffffffffff1673ffffffffffffffffffffffffffffffffffffffff161415151561218157600080fd5b600b8981548110151561219057fe5b9060005260206000209060050201905080600001549750806001018054600181600116156101000203166002900480601f01602080910402602001604051908101604052809291908181526020018280546001816001161561010002031660029004801561223f5780601f106122145761010080835404028352916020019161223f565b820191906000526020600020905b81548152906001019060200180831161222257829003601f168201915b505050505096508060030160009054906101000a900460ff169550600d60008a8152602001908152602001600020805490509450806002015493508060030160019054906101000a900460ff16600381111561229757fe5b92508060040154915050919395979092949650565b600360009054906101000a900473ffffffffffffffffffffffffffffffffffffffff1673ffffffffffffffffffffffffffffffffffffffff163373ffffffffffffffffffffffffffffffffffffffff1614806123555750600160009054906101000a900473ffffffffffffffffffffffffffffffffffffffff1673ffffffffffffffffffffffffffffffffffffffff163373ffffffffffffffffffffffffffffffffffffffff16145b806123ad5750600260009054906101000a900473ffffffffffffffffffffffffffffffffffffffff1673ffffffffffffffffffffffffffffffffffffffff163373ffffffffffffffffffffffffffffffffffffffff16145b15156123b857600080fd5b600073ffffffffffffffffffffffffffffffffffffffff168173ffffffffffffffffffffffffffffffffffffffff16141515156123f457600080fd5b6001600460008373ffffffffffffffffffffffffffffffffffffffff1673ffffffffffffffffffffffffffffffffffffffff16815260200190815260200160002060006101000a81548160ff02191690831515021790555050565b6000601260008373ffffffffffffffffffffffffffffffffffffffff1673ffffffffffffffffffffffffffffffffffffffff168152602001908152602001600020805490509050919050565b600160009054906101000a900473ffffffffffffffffffffffffffffffffffffffff1673ffffffffffffffffffffffffffffffffffffffff163373ffffffffffffffffffffffffffffffffffffffff161415156124f757600080fd5b80600560006101000a81548173ffffffffffffffffffffffffffffffffffffffff021916908373ffffffffffffffffffffffffffffffffffffffff1602179055507f450db8da6efbe9c22f2347f7c2021231df1fc58d3ae9a2fa75d39fa44619930581604051808273ffffffffffffffffffffffffffffffffffffffff1673ffffffffffffffffffffffffffffffffffffffff16815260200191505060405180910390a150565b600080823373ffffffffffffffffffffffffffffffffffffffff166011600083815260200190815260200160002060009054906101000a900473ffffffffffffffffffffffffffffffffffffffff1673ffffffffffffffffffffffffffffffffffffffff1614151561260f57600080fd5b600a600e60008681526020019081526020016000205481548110151561263157fe5b90600052602060002090600502019250600b836000015481548110151561265457fe5b9060005260206000209060050201915060018260030160009054906101000a900460ff1660ff16148061269b575060018360040160009054906101000a900460ff1660ff16145b15156126a657600080fd5b6126be6001846003015461374290919063ffffffff16565b83600301819055506126e18360010154836002015461376090919063ffffffff16565b826002018190555060006011600086815260200190815260200160002060006101000a81548173ffffffffffffffffffffffffffffffffffffffff021916908373ffffffffffffffffffffffffffffffffffffffff1602179055506000601260003373ffffffffffffffffffffffffffffffffffffffff1673ffffffffffffffffffffffffffffffffffffffff168152602001908152602001600020601360008781526020019081526020016000205481548110151561279d57fe5b9060005260206000200181905550600060136000868152602001908152602001600020819055503373ffffffffffffffffffffffffffffffffffffffff166108fc600660009054906101000a900473ffffffffffffffffffffffffffffffffffffffff1673ffffffffffffffffffffffffffffffffffffffff16630c560c6460006040518263ffffffff167c010000000000000000000000000000000000000000000000000000000002815260040180828152602001915050602060405180830381600087803b15801561287057600080fd5b505af1158015612884573d6000803e3d6000fd5b505050506040513d602081101561289a57600080fd5b81019080805190602001909291905050508560010154029081150290604051600060405180830381858888f193505050501580156128dc573d6000803e3d6000fd5b507fb56b591803cc7bbb211b8af54a52c3a403e25fb272b9b853e59f42cef9e41d9884338560000154604051808481526020018373ffffffffffffffffffffffffffffffffffffffff1673ffffffffffffffffffffffffffffffffffffffff168152602001828152602001935050505060405180910390a150505050565b600080600073ffffffffffffffffffffffffffffffffffffffff16600f600085815260200190815260200160002060009054906101000a900473ffffffffffffffffffffffffffffffffffffffff1673ffffffffffffffffffffffffffffffffffffffff16141515156129cc57600080fd5b600090505b600a80549050811015612a1c5782600a828154811015156129ee57fe5b9060005260206000209060050201600001541415612a0f5781806001019250505b80806001019150506129d1565b50919050565b6060601260008373ffffffffffffffffffffffffffffffffffffffff1673ffffffffffffffffffffffffffffffffffffffff168152602001908152602001600020805480602002602001604051908101604052809291908181526020018280548015612aad57602002820191906000526020600020905b815481526020019060010190808311612a99575b50505050509050919050565b6000806000612acb8789888888613779565b91508673ffffffffffffffffffffffffffffffffffffffff16601160008b815260200190815260200160002060009054906101000a900473ffffffffffffffffffffffffffffffffffffffff1673ffffffffffffffffffffffffffffffffffffffff16149050818015612b3b5750805b925050509695505050505050565b6000809054906101000a900473ffffffffffffffffffffffffffffffffffffffff1681565b6000806000806000806000600d60008a815260200190815260200160002088815481101515612b9957fe5b90600052602060002001549050612baf816111ed565b965096509650965096509650509295509295509295565b600080601260008573ffffffffffffffffffffffffffffffffffffffff1673ffffffffffffffffffffffffffffffffffffffff16815260200190815260200160002083815481101515612c1557fe5b906000526020600020015414151515612c2d57600080fd5b601260008473ffffffffffffffffffffffffffffffffffffffff1673ffffffffffffffffffffffffffffffffffffffff16815260200190815260200160002082815481101515612c7957fe5b9060005260206000200154905092915050565b606080600080600073ffffffffffffffffffffffffffffffffffffffff168573ffffffffffffffffffffffffffffffffffffffff1614151515612cce57600080fd5b601060008673ffffffffffffffffffffffffffffffffffffffff1673ffffffffffffffffffffffffffffffffffffffff16815260200190815260200160002054604051908082528060200260200182016040528015612d3c5781602001602082028038833980820191505090505b50925060009150600190505b600b80549050811015612ded578473ffffffffffffffffffffffffffffffffffffffff16600f600083815260200190815260200160002060009054906101000a900473ffffffffffffffffffffffffffffffffffffffff1673ffffffffffffffffffffffffffffffffffffffff161415612de057808383806001019450815181101515612dd157fe5b90602001906020020181815250505b8080600101915050612d48565b829350505050919050565b6000600660009054906101000a900473ffffffffffffffffffffffffffffffffffffffff1673ffffffffffffffffffffffffffffffffffffffff16630c560c646008546040518263ffffffff167c010000000000000000000000000000000000000000000000000000000002815260040180828152602001915050602060405180830381600087803b158015612e8d57600080fd5b505af1158015612ea1573d6000803e3d6000fd5b505050506040513d6020811015612eb757600080fd5b8101908080519060200190929190505050905090565b600360009054906101000a900473ffffffffffffffffffffffffffffffffffffffff1681565b823373ffffffffffffffffffffffffffffffffffffffff16600f600083815260200190815260200160002060009054906101000a900473ffffffffffffffffffffffffffffffffffffffff1673ffffffffffffffffffffffffffffffffffffffff16141515612f6157600080fd5b8282600b86815481101515612f7257fe5b90600052602060002090600502016001019190612f909291906138fa565b5050505050565b600080843373ffffffffffffffffffffffffffffffffffffffff16600f600083815260200190815260200160002060009054906101000a900473ffffffffffffffffffffffffffffffffffffffff1673ffffffffffffffffffffffffffffffffffffffff1614151561300857600080fd5b846001600381111561301657fe5b60ff168160ff16148061303a57506002600381111561303157fe5b60ff168160ff16145b80613055575060038081111561304c57fe5b60ff168160ff16145b151561306057600080fd5b600b8781548110151561306f57fe5b9060005260206000209060050201935060008460030160009054906101000a900460ff1660ff1614806130a55750428460000154115b15156130b057600080fd5b600660009054906101000a900473ffffffffffffffffffffffffffffffffffffffff1673ffffffffffffffffffffffffffffffffffffffff16630c560c646008546040518263ffffffff167c010000000000000000000000000000000000000000000000000000000002815260040180828152602001915050602060405180830381600087803b15801561314357600080fd5b505af1158015613157573d6000803e3d6000fd5b505050506040513d602081101561316d57600080fd5b8101908080519060200190929190505050600960008860ff1660ff168152602001908152602001600020540292508460ff168302341415156131ae57600080fd5b8560ff1660038111156131bd57fe5b8460030160016101000a81548160ff021916908360038111156131dc57fe5b0217905550620151808560ff160262ffffff164201846004018190555050505050505050565b813373ffffffffffffffffffffffffffffffffffffffff16600f600083815260200190815260200160002060009054906101000a900473ffffffffffffffffffffffffffffffffffffffff1673ffffffffffffffffffffffffffffffffffffffff1614151561327057600080fd5b428211151561327e57600080fd5b81600b8481548110151561328e57fe5b906000526020600020906005020160000181905550505050565b60006132c36001600b8054905061376090919063ffffffff16565b905090565b600081600160038111156132d857fe5b60ff168160ff1614806132fc5750600260038111156132f357fe5b60ff168160ff16145b80613317575060038081111561330e57fe5b60ff168160ff16145b151561332257600080fd5b600660009054906101000a900473ffffffffffffffffffffffffffffffffffffffff1673ffffffffffffffffffffffffffffffffffffffff16630c560c646008546040518263ffffffff167c010000000000000000000000000000000000000000000000000000000002815260040180828152602001915050602060405180830381600087803b1580156133b557600080fd5b505af11580156133c9573d6000803e3d6000fd5b505050506040513d60208110156133df57600080fd5b8101908080519060200190929190505050600960008560ff1660ff1681526020019081526020016000205402915050919050565b6000809054906101000a900473ffffffffffffffffffffffffffffffffffffffff1673ffffffffffffffffffffffffffffffffffffffff163373ffffffffffffffffffffffffffffffffffffffff1614151561346e57600080fd5b600073ffffffffffffffffffffffffffffffffffffffff168173ffffffffffffffffffffffffffffffffffffffff16141515156134aa57600080fd5b8073ffffffffffffffffffffffffffffffffffffffff166000809054906101000a900473ffffffffffffffffffffffffffffffffffffffff1673ffffffffffffffffffffffffffffffffffffffff167f8be0079c531659141344cd1fd0a4f28419497f9722a3daafe3b4186f6b6457e060405160405180910390a3806000806101000a81548173ffffffffffffffffffffffffffffffffffffffff021916908373ffffffffffffffffffffffffffffffffffffffff16021790555050565b61357061397a565b600080863373ffffffffffffffffffffffffffffffffffffffff16600f600083815260200190815260200160002060009054906101000a900473ffffffffffffffffffffffffffffffffffffffff1673ffffffffffffffffffffffffffffffffffffffff161415156135e157600080fd5b6000861115156135f057600080fd5b60a0604051908101604052808981526020018881526020018781526020018781526020018660ff168152509350600a84908060018154018082558091505090600182039060005260206000209060050201600090919290919091506000820151816000015560208201518160010155604082015181600201556060820151816003015560808201518160040160006101000a81548160ff021916908360ff16021790555050509250600183039150600d60008981526020019081526020016000208290806001815401808255809150509060018203906000526020600020016000909192909190915055507f89f4233ba7e97c17d7d7f16839572d206d5298b07835eaa666b1bb2b715c8a328289898989604051808681526020018581526020018481526020018381526020018260ff1660ff1681526020019550505050505060405180910390a15050505050505050565b600080828401905083811015151561375657fe5b8091505092915050565b600082821115151561376e57fe5b818303905092915050565b60008573ffffffffffffffffffffffffffffffffffffffff16600186868686604051600081526020016040526040518085600019166000191681526020018460ff1660ff1681526020018360001916600019168152602001826000191660001916815260200194505050505060206040516020810390808403906000865af1158015613809573d6000803e3d6000fd5b5050506020604051035173ffffffffffffffffffffffffffffffffffffffff1614905095945050505050565b60c060405190810160405280600081526020016060815260200160008152602001600060ff1681526020016000600381111561386d57fe5b8152602001600081525090565b828054600181600116156101000203166002900490600052602060002090601f016020900481019282601f106138bb57805160ff19168380011785556138e9565b828001600101855582156138e9579182015b828111156138e85782518255916020019190600101906138cd565b5b5090506138f691906139ad565b5090565b828054600181600116156101000203166002900490600052602060002090601f016020900481019282601f1061393b57803560ff1916838001178555613969565b82800160010185558215613969579182015b8281111561396857823582559160200191906001019061394d565b5b50905061397691906139ad565b5090565b60a06040519081016040528060008152602001600081526020016000815260200160008152602001600060ff1681525090565b6139cf91905b808211156139cb5760008160009055506001016139b3565b5090565b905600a165627a7a72305820e553e35f1cb51d7b1773259b360c97f92ddd91ac248baa13ee7f50759bfd738f0029",
  "source": "pragma solidity ^0.4.23;\n\nimport \"./TicketAccessControl.sol\";\nimport \"../node_modules/zeppelin-solidity/contracts/math/SafeMath.sol\";\nimport \"./FiatContract.sol\";\n\ncontract SmartTickets is TicketAccessControl {\n    using SafeMath for uint;\n    \n    event EventCreation(uint id, uint date, bytes metaDescriptionHash, address creator);\n    event EventCancelation(uint id);\n    \n    event TicketTypeCreation(\n        uint ticketTypeId,\n        uint eventId,\n        uint price,\n        uint supply,\n        uint8 refundable\n    );\n    event TicketPurchase(uint ticketId, address buyer);\n    event TicketRefund(uint ticketId, address refunder, uint eventId);\n    \n    event Withdrawal(address to, uint amount);\n    \n    struct TicketType {\n        uint eventId;\n        uint priceInUSDCents;\n        uint initialSupply;\n        uint currentSupply;\n        uint8 refundable;\n    }\n    \n    struct Event {\n        uint timestamp;\n        bytes metaDescriptionHash;\n        uint earnings;\n        uint8 cancelled;\n        PromotionLevel promotionLevel;\n        uint promotionExpirationDate;\n    }\n    \n    FiatContract private fiatContract;\n    address fiatContractAddress = 0x2CDe56E5c8235D6360CCbb0c57Ce248Ca9C80909;\n    uint private FIAT_ETH_INDEX = 0;\n    \n    enum PromotionLevel { NONE, SMALL, MEDIUM, BIG }\n    mapping (uint8 => uint) promotionLevelPrices;\n\n    TicketType[] ticketTypes;\n    Event[] events;\n    uint private currentTicketIdIndex;\n    mapping (uint => uint[]) eventToTicketType;\n    mapping (uint => uint) ticketToTicketType;\n    \n    mapping (uint => address) eventIdToCreator;\n    mapping (address => uint) creatorEventCount;\n    \n    mapping (uint => address) ticketOwner;\n    mapping (address => uint[]) private ownedTickets;\n    mapping (uint => uint) private ownedTicketsIndex;\n    \n    \n    modifier onlyOwnerOf(uint _ticketId) {\n        require(ticketOwner[_ticketId] == msg.sender);\n        _;\n    }\n    \n    modifier validCreatorOfEvent(uint _eventId) {\n        require(eventIdToCreator[_eventId] == msg.sender);\n        _;\n    }\n    \n    modifier validPromotionLevel(uint8 _level) {\n        require(_level == uint8(PromotionLevel.SMALL) || \n            _level == uint8(PromotionLevel.MEDIUM) ||\n            _level == uint8(PromotionLevel.BIG));\n        _;\n    }\n\n    constructor() public {\n        // Add the contract owner as CEO, COO, CFO and admin initially\n        ceoAddress = msg.sender;\n        cooAddress = msg.sender;\n        cfoAddress = msg.sender;\n        admins[msg.sender] = true;\n        \n        // fiatContract = new FiatContractDebug();\n        fiatContract = FiatContract(fiatContractAddress);\n        \n        // Create genesis event\n        Event memory genesisEvent = Event(0, \n            \"\",\n            0, \n            0, \n            PromotionLevel.NONE,\n            0);\n        events.push(genesisEvent);\n        // Create genesis ticketType\n        TicketType memory genesisTicketType = TicketType(0, 0, 0, 0, 0);\n        ticketTypes.push(genesisTicketType);\n        // And genesis ticket\n        currentTicketIdIndex = currentTicketIdIndex.add(1);\n        \n        // Set initial promotion level prices\n        promotionLevelPrices[uint8(PromotionLevel.SMALL)] = 10;\n        promotionLevelPrices[uint8(PromotionLevel.MEDIUM)] = 20;\n        promotionLevelPrices[uint8(PromotionLevel.BIG)] = 30;\n    }\n    \n    function setFiatContractAddress(address _newAddress) external onlyCLevel {\n        fiatContractAddress = _newAddress;\n        fiatContract = FiatContract(_newAddress);\n    }\n    \n    function balanceOf(address _owner) public view returns (uint) {\n        return ownedTickets[_owner].length;\n    }\n    \n    function getTicketsForOwner(address _owner) public view returns (uint[]) {\n        return ownedTickets[_owner];\n    }\n    \n    function getTicketIdForOwner(address _owner, uint _index) \n        public\n        view\n        returns(uint)\n    {\n        require(ownedTickets[_owner][_index] != 0);\n        return ownedTickets[_owner][_index];\n    }\n    \n    function getUsdCourse() public view returns (uint) {\n        return fiatContract.USD(0);\n    }\n    \n    function buyTicket(uint _ticketTypeId) public payable {\n        TicketType storage ticketType = ticketTypes[_ticketTypeId];\n        Event storage forEvent = events[ticketType.eventId];\n        \n        require(ticketType.eventId != 0);\n        require(events[ticketType.eventId].timestamp > now);\n        require(ticketType.currentSupply > 0);\n        require(msg.value ==\n            ticketType.priceInUSDCents * fiatContract.USD(FIAT_ETH_INDEX));\n        \n        \n        forEvent.earnings = forEvent.earnings.add(msg.value);\n        ticketType.currentSupply = ticketType.currentSupply.sub(1);\n        \n        ticketOwner[currentTicketIdIndex] = msg.sender;\n        ticketToTicketType[currentTicketIdIndex] = _ticketTypeId;\n        uint length = balanceOf(msg.sender);\n        ownedTickets[msg.sender].push(currentTicketIdIndex);\n        ownedTicketsIndex[currentTicketIdIndex] = length;\n        \n        currentTicketIdIndex = currentTicketIdIndex.add(1);\n        emit TicketPurchase(currentTicketIdIndex - 1, msg.sender);\n    }\n    \n    function createEvent(uint _timestamp,\n        bytes _metaDescriptionHash,\n        uint[] _ticketPricesInUSDCents,\n        uint[] _ticketSupplies,\n        uint8[] _ticketRefundables) \n        external\n        onlyAdminOrAbove\n    {\n        require(_timestamp > now);\n        require(_ticketPricesInUSDCents.length > 0 &&\n            _ticketPricesInUSDCents.length == _ticketSupplies.length &&\n            _ticketPricesInUSDCents.length == _ticketRefundables.length);\n        \n        Event memory newEvent = Event(\n            _timestamp,\n            _metaDescriptionHash,\n            0,\n            0,\n            PromotionLevel.NONE,\n            0);\n        uint newEventId = events.push(newEvent) - 1;\n        eventIdToCreator[newEventId] = msg.sender;\n        creatorEventCount[msg.sender] = creatorEventCount[msg.sender].add(1);\n        \n        emit EventCreation(newEventId, _timestamp, _metaDescriptionHash, msg.sender);\n        \n        for (uint i = 0; i < _ticketPricesInUSDCents.length; i++) {\n            addTicketForEvent(\n                newEventId,\n                _ticketPricesInUSDCents[i],\n                _ticketSupplies[i],\n                _ticketRefundables[i]);\n        }\n    }\n    \n    function addTicketForEvent(\n        uint _eventId,\n        uint _priceInUSDCents,\n        uint _initialSupply,\n        uint8 _refundable\n    )\n        public\n        validCreatorOfEvent(_eventId)\n    {\n        require(_initialSupply > 0);\n        \n        TicketType memory ticketType = TicketType(\n            _eventId,\n            _priceInUSDCents,\n            _initialSupply,\n            _initialSupply,\n            _refundable\n        );\n        \n        uint length = ticketTypes.push(ticketType);\n        uint ticketTypeId =  length - 1;\n        \n        eventToTicketType[_eventId].push(ticketTypeId);\n        \n        emit TicketTypeCreation(\n            ticketTypeId,\n            _eventId,\n            _priceInUSDCents,\n            _initialSupply,\n            _refundable\n        );\n    }\n    \n    function refundTicket(uint _ticketId) external onlyOwnerOf(_ticketId) {\n        TicketType storage ticketType = \n            ticketTypes[ticketToTicketType[_ticketId]];\n        Event storage forEvent = events[ticketType.eventId];\n        \n        require(forEvent.cancelled == 1 || ticketType.refundable == 1);\n        \n        ticketType.currentSupply = ticketType.currentSupply.add(1);\n        forEvent.earnings = forEvent.earnings.sub(ticketType.priceInUSDCents);\n        \n        ticketOwner[_ticketId] = address(0);\n        ownedTickets[msg.sender][ownedTicketsIndex[_ticketId]] = 0;\n        ownedTicketsIndex[_ticketId] = 0;\n        \n        msg.sender.transfer(ticketType.priceInUSDCents * fiatContract.USD(0));\n        emit TicketRefund(_ticketId, msg.sender, ticketType.eventId);\n    }\n    \n    function cancelEvent(uint _eventId) external validCreatorOfEvent(_eventId) {\n        Event storage eventToCancel = events[_eventId];\n        require(eventToCancel.timestamp > now);\n        eventToCancel.cancelled = 1;\n        emit EventCancelation(_eventId);\n    }\n    \n    function withdrawalEarningsForEvent(uint _eventId) \n        external\n        validCreatorOfEvent(_eventId)\n    {\n        Event storage pastEvent = events[_eventId];\n        require(pastEvent.timestamp > now);\n        require(pastEvent.earnings > 0);\n        \n        uint earnings = pastEvent.earnings;\n        pastEvent.earnings = 0;\n        \n        msg.sender.transfer(earnings);\n        emit Withdrawal(msg.sender, earnings);\n    }\n    \n    function changeEventDate(uint _id, uint _timestamp)\n        external\n        validCreatorOfEvent(_id)\n    {\n        require(_timestamp > now);\n        events[_id].timestamp = _timestamp;\n    }\n    \n    function changeEventMetaDescriptionHash(uint _id, bytes _hash)\n        external \n        validCreatorOfEvent(_id)\n    {\n        events[_id].metaDescriptionHash = _hash;\n    }\n    \n    function getEventCount() external view returns(uint) {\n        // Exclude genesis event\n        return events.length.sub(1);\n    }\n    \n    function getTicketTypesCountForEvent(uint _eventId) \n        external\n        view\n        returns(uint256 count)\n    {\n        require(eventIdToCreator[_eventId] != address(0));\n        \n        for (uint i = 0; i < ticketTypes.length; i++) {\n            if (ticketTypes[i].eventId == _eventId) {\n                count++;\n            }\n        }\n    }\n    \n    function setPromotionLevelPrice(uint8 _level, uint _newPrice) \n        external\n        validPromotionLevel(_level)\n        onlyCLevel {\n        promotionLevelPrices[uint8(_level)] = fiatContract.USD(_newPrice);\n    }\n    \n    function promoteEvent(uint _eventId, uint8 _level, uint8 _numDays)\n        validCreatorOfEvent(_eventId)\n        validPromotionLevel(_level)\n        external\n        payable {\n        Event storage forEvent = events[_eventId];\n        require(forEvent.cancelled == 0 || forEvent.timestamp > now);\n        \n        uint pricePerDay = promotionLevelPrices[uint8(_level)] \n            * fiatContract.USD(FIAT_ETH_INDEX);\n        require(msg.value == pricePerDay * _numDays);\n        \n        forEvent.promotionLevel = PromotionLevel(_level);\n        forEvent.promotionExpirationDate = now + (_numDays * 1 days);\n    }\n    \n    function getPromotionLevelPrice(uint8 _level) \n        external\n        view\n        validPromotionLevel(_level)\n        returns (uint) {\n        return promotionLevelPrices[_level] * fiatContract.USD(FIAT_ETH_INDEX);\n    }\n    \n    function getTicketType(uint _ticketTypeId) \n        public\n        view\n        returns(\n        uint ticketTypeId,\n        uint eventId,\n        uint price,\n        uint initialSupply,\n        uint currentSupply,\n        uint8 refundable\n    ) {\n        TicketType storage ticketType = ticketTypes[_ticketTypeId];\n        \n        ticketTypeId = _ticketTypeId;\n        eventId = ticketType.eventId;\n        price = ticketType.priceInUSDCents;\n        initialSupply = ticketType.initialSupply;\n        currentSupply = ticketType.currentSupply;\n        refundable = ticketType.refundable;\n    }\n    \n    function getEvent(uint _eventId) \n        external \n        view \n        returns(\n        uint timestamp,\n        bytes metaDescriptionHash,\n        uint8 cancelled,\n        uint ticketTypeCount,\n        uint earnings,\n        uint8 promotionLevel,\n        uint promotionExpirationDate\n    ) {\n        require(eventIdToCreator[_eventId] != address(0));\n        \n        Event storage searchedEvent = events[_eventId];\n        timestamp = searchedEvent.timestamp;\n        metaDescriptionHash = searchedEvent.metaDescriptionHash;\n        cancelled = searchedEvent.cancelled;\n        ticketTypeCount = eventToTicketType[_eventId].length;\n        earnings = searchedEvent.earnings;\n        promotionLevel = uint8(searchedEvent.promotionLevel);\n        promotionExpirationDate = searchedEvent.promotionExpirationDate;\n    }\n\n    function getEventIdsForCreator(address _creator) external view returns(uint[]) {\n        require(_creator != address(0));\n        \n        uint[] memory resultEvents = new uint[](creatorEventCount[_creator]);\n        uint resultIndex = 0;\n        for (uint i = 1; i < events.length; i++) {\n            if (eventIdToCreator[i] == _creator) {\n                resultEvents[resultIndex++] = i;\n            }\n        }\n        return resultEvents;\n    }\n    \n    \n    function getTicketTypeForTicket(uint _ticketId) \n        external\n        view\n        returns(\n        uint,\n        uint,\n        uint,\n        uint,\n        uint,\n        uint8\n    ) {\n        uint256 ticketTypeId = ticketToTicketType[_ticketId];\n        return getTicketType(ticketTypeId);\n    }\n    \n    function getTicketTypeForEvent(uint _eventId, uint _index)\n        external\n        view\n        returns(uint, uint, uint, uint, uint, uint8)\n    {\n        uint ticketTypeId = eventToTicketType[_eventId][_index];\n        return getTicketType(ticketTypeId);\n    }\n    \n    function getTicketTypeCount() public view returns(uint) {\n        // Exclude genesis ticketType\n        return ticketTypes.length - 1;\n    }\n    \n    function getOneUSDCentInWei() public view returns(uint) {\n        return fiatContract.USD(FIAT_ETH_INDEX);\n    }\n    \n    function verifyTicket(uint _ticketId, \n        bytes32 _ticketIdHash,\n        address _addr,\n        uint8 _v,\n        bytes32 _r,\n        bytes32 _s) \n        public\n        view\n        returns (bool) {\n        bool isSigned = _isSigned(_addr, _ticketIdHash, _v, _r, _s);\n        bool validOwner = ticketOwner[_ticketId] == _addr;\n        return isSigned && validOwner;\n    }\n    \n    function _isSigned(address _addr, \n        bytes32 _msgHash, \n        uint8 _v,\n        bytes32 _r,\n        bytes32 _s)\n        private\n        pure\n        returns (bool) {\n        return ecrecover(_msgHash, _v, _r, _s) == _addr;\n    }\n}",
  "sourcePath": "/home/ivanasen/Code/smart-tickets/contracts/SmartTickets.sol",
  "compiler": {
    "name": "solc",
    "version": "0.4.23+commit.124ca40d.Emscripten.clang"
  },
  "schemaVersion": "2.0.0",
  "updatedAt": "2018-05-03T09:02:25.270Z"
}