{
  "contractName": "SmartTickets",
  "abi": [
    {
      "constant": true,
      "inputs": [],
      "name": "cfoAddress",
      "outputs": [
        {
          "name": "",
          "type": "address"
        }
      ],
      "payable": false,
      "stateMutability": "view",
      "type": "function"
    },
    {
      "constant": true,
      "inputs": [],
      "name": "ceoAddress",
      "outputs": [
        {
          "name": "",
          "type": "address"
        }
      ],
      "payable": false,
      "stateMutability": "view",
      "type": "function"
    },
    {
      "constant": false,
      "inputs": [
        {
          "name": "_admin",
          "type": "address"
        }
      ],
      "name": "removeAdmin",
      "outputs": [],
      "payable": false,
      "stateMutability": "nonpayable",
      "type": "function"
    },
    {
      "constant": false,
      "inputs": [
        {
          "name": "_newCEO",
          "type": "address"
        }
      ],
      "name": "setCEO",
      "outputs": [],
      "payable": false,
      "stateMutability": "nonpayable",
      "type": "function"
    },
    {
      "constant": false,
      "inputs": [
        {
          "name": "_newCOO",
          "type": "address"
        }
      ],
      "name": "setCOO",
      "outputs": [],
      "payable": false,
      "stateMutability": "nonpayable",
      "type": "function"
    },
    {
      "constant": false,
      "inputs": [
        {
          "name": "_newCFO",
          "type": "address"
        }
      ],
      "name": "setCFO",
      "outputs": [],
      "payable": false,
      "stateMutability": "nonpayable",
      "type": "function"
    },
    {
      "constant": true,
      "inputs": [],
      "name": "newContractAddress",
      "outputs": [
        {
          "name": "",
          "type": "address"
        }
      ],
      "payable": false,
      "stateMutability": "view",
      "type": "function"
    },
    {
      "constant": false,
      "inputs": [
        {
          "name": "_admin",
          "type": "address"
        }
      ],
      "name": "addAdmin",
      "outputs": [],
      "payable": false,
      "stateMutability": "nonpayable",
      "type": "function"
    },
    {
      "constant": false,
      "inputs": [
        {
          "name": "_v2Address",
          "type": "address"
        }
      ],
      "name": "setNewAddress",
      "outputs": [],
      "payable": false,
      "stateMutability": "nonpayable",
      "type": "function"
    },
    {
      "constant": true,
      "inputs": [],
      "name": "owner",
      "outputs": [
        {
          "name": "",
          "type": "address"
        }
      ],
      "payable": false,
      "stateMutability": "view",
      "type": "function"
    },
    {
      "constant": true,
      "inputs": [],
      "name": "cooAddress",
      "outputs": [
        {
          "name": "",
          "type": "address"
        }
      ],
      "payable": false,
      "stateMutability": "view",
      "type": "function"
    },
    {
      "constant": false,
      "inputs": [
        {
          "name": "newOwner",
          "type": "address"
        }
      ],
      "name": "transferOwnership",
      "outputs": [],
      "payable": false,
      "stateMutability": "nonpayable",
      "type": "function"
    },
    {
      "inputs": [],
      "payable": false,
      "stateMutability": "nonpayable",
      "type": "constructor"
    },
    {
      "anonymous": false,
      "inputs": [
        {
          "indexed": false,
          "name": "id",
          "type": "uint256"
        },
        {
          "indexed": false,
          "name": "date",
          "type": "uint256"
        },
        {
          "indexed": false,
          "name": "metaDescriptionHash",
          "type": "bytes"
        },
        {
          "indexed": false,
          "name": "creator",
          "type": "address"
        }
      ],
      "name": "EventCreation",
      "type": "event"
    },
    {
      "anonymous": false,
      "inputs": [
        {
          "indexed": false,
          "name": "id",
          "type": "uint256"
        }
      ],
      "name": "EventCancelation",
      "type": "event"
    },
    {
      "anonymous": false,
      "inputs": [
        {
          "indexed": false,
          "name": "ticketTypeId",
          "type": "uint256"
        },
        {
          "indexed": false,
          "name": "eventId",
          "type": "uint256"
        },
        {
          "indexed": false,
          "name": "price",
          "type": "uint256"
        },
        {
          "indexed": false,
          "name": "supply",
          "type": "uint256"
        },
        {
          "indexed": false,
          "name": "refundable",
          "type": "uint8"
        }
      ],
      "name": "TicketTypeCreation",
      "type": "event"
    },
    {
      "anonymous": false,
      "inputs": [
        {
          "indexed": false,
          "name": "ticketId",
          "type": "uint256"
        },
        {
          "indexed": false,
          "name": "buyer",
          "type": "address"
        }
      ],
      "name": "TicketPurchase",
      "type": "event"
    },
    {
      "anonymous": false,
      "inputs": [
        {
          "indexed": false,
          "name": "ticketId",
          "type": "uint256"
        },
        {
          "indexed": false,
          "name": "refunder",
          "type": "address"
        },
        {
          "indexed": false,
          "name": "eventId",
          "type": "uint256"
        }
      ],
      "name": "TicketRefund",
      "type": "event"
    },
    {
      "anonymous": false,
      "inputs": [
        {
          "indexed": false,
          "name": "to",
          "type": "address"
        },
        {
          "indexed": false,
          "name": "amount",
          "type": "uint256"
        }
      ],
      "name": "Withdrawal",
      "type": "event"
    },
    {
      "anonymous": false,
      "inputs": [
        {
          "indexed": false,
          "name": "newContract",
          "type": "address"
        }
      ],
      "name": "ContractUpgrade",
      "type": "event"
    },
    {
      "anonymous": false,
      "inputs": [
        {
          "indexed": true,
          "name": "previousOwner",
          "type": "address"
        },
        {
          "indexed": true,
          "name": "newOwner",
          "type": "address"
        }
      ],
      "name": "OwnershipTransferred",
      "type": "event"
    },
    {
      "constant": false,
      "inputs": [
        {
          "name": "_newAddress",
          "type": "address"
        }
      ],
      "name": "setFiatContractAddress",
      "outputs": [],
      "payable": false,
      "stateMutability": "nonpayable",
      "type": "function"
    },
    {
      "constant": true,
      "inputs": [
        {
          "name": "_owner",
          "type": "address"
        }
      ],
      "name": "balanceOf",
      "outputs": [
        {
          "name": "",
          "type": "uint256"
        }
      ],
      "payable": false,
      "stateMutability": "view",
      "type": "function"
    },
    {
      "constant": true,
      "inputs": [
        {
          "name": "_owner",
          "type": "address"
        }
      ],
      "name": "getTicketsForOwner",
      "outputs": [
        {
          "name": "",
          "type": "uint256[]"
        }
      ],
      "payable": false,
      "stateMutability": "view",
      "type": "function"
    },
    {
      "constant": true,
      "inputs": [
        {
          "name": "_owner",
          "type": "address"
        },
        {
          "name": "_index",
          "type": "uint256"
        }
      ],
      "name": "getTicketIdForOwner",
      "outputs": [
        {
          "name": "",
          "type": "uint256"
        }
      ],
      "payable": false,
      "stateMutability": "view",
      "type": "function"
    },
    {
      "constant": true,
      "inputs": [],
      "name": "getUsdCourse",
      "outputs": [
        {
          "name": "",
          "type": "uint256"
        }
      ],
      "payable": false,
      "stateMutability": "view",
      "type": "function"
    },
    {
      "constant": false,
      "inputs": [
        {
          "name": "_ticketTypeId",
          "type": "uint256"
        }
      ],
      "name": "buyTicket",
      "outputs": [],
      "payable": true,
      "stateMutability": "payable",
      "type": "function"
    },
    {
      "constant": false,
      "inputs": [
        {
          "name": "_timestamp",
          "type": "uint256"
        },
        {
          "name": "_metaDescriptionHash",
          "type": "bytes"
        },
        {
          "name": "_ticketPricesInUSDCents",
          "type": "uint256[]"
        },
        {
          "name": "_ticketSupplies",
          "type": "uint256[]"
        },
        {
          "name": "_ticketRefundables",
          "type": "uint8[]"
        }
      ],
      "name": "createEvent",
      "outputs": [],
      "payable": false,
      "stateMutability": "nonpayable",
      "type": "function"
    },
    {
      "constant": false,
      "inputs": [
        {
          "name": "_eventId",
          "type": "uint256"
        },
        {
          "name": "_priceInUSDCents",
          "type": "uint256"
        },
        {
          "name": "_initialSupply",
          "type": "uint256"
        },
        {
          "name": "_refundable",
          "type": "uint8"
        }
      ],
      "name": "addTicketForEvent",
      "outputs": [],
      "payable": false,
      "stateMutability": "nonpayable",
      "type": "function"
    },
    {
      "constant": false,
      "inputs": [
        {
          "name": "_ticketId",
          "type": "uint256"
        }
      ],
      "name": "refundTicket",
      "outputs": [],
      "payable": false,
      "stateMutability": "nonpayable",
      "type": "function"
    },
    {
      "constant": false,
      "inputs": [
        {
          "name": "_eventId",
          "type": "uint256"
        }
      ],
      "name": "cancelEvent",
      "outputs": [],
      "payable": false,
      "stateMutability": "nonpayable",
      "type": "function"
    },
    {
      "constant": false,
      "inputs": [
        {
          "name": "_eventId",
          "type": "uint256"
        }
      ],
      "name": "withdrawalEarningsForEvent",
      "outputs": [],
      "payable": false,
      "stateMutability": "nonpayable",
      "type": "function"
    },
    {
      "constant": false,
      "inputs": [
        {
          "name": "_id",
          "type": "uint256"
        },
        {
          "name": "_timestamp",
          "type": "uint256"
        }
      ],
      "name": "changeEventDate",
      "outputs": [],
      "payable": false,
      "stateMutability": "nonpayable",
      "type": "function"
    },
    {
      "constant": false,
      "inputs": [
        {
          "name": "_id",
          "type": "uint256"
        },
        {
          "name": "_hash",
          "type": "bytes"
        }
      ],
      "name": "changeEventMetaDescriptionHash",
      "outputs": [],
      "payable": false,
      "stateMutability": "nonpayable",
      "type": "function"
    },
    {
      "constant": true,
      "inputs": [],
      "name": "getEventCount",
      "outputs": [
        {
          "name": "",
          "type": "uint256"
        }
      ],
      "payable": false,
      "stateMutability": "view",
      "type": "function"
    },
    {
      "constant": true,
      "inputs": [
        {
          "name": "_eventId",
          "type": "uint256"
        }
      ],
      "name": "getTicketTypesCountForEvent",
      "outputs": [
        {
          "name": "count",
          "type": "uint256"
        }
      ],
      "payable": false,
      "stateMutability": "view",
      "type": "function"
    },
    {
      "constant": false,
      "inputs": [
        {
          "name": "_level",
          "type": "uint8"
        },
        {
          "name": "_newPrice",
          "type": "uint256"
        }
      ],
      "name": "setPromotionLevelPrice",
      "outputs": [],
      "payable": false,
      "stateMutability": "nonpayable",
      "type": "function"
    },
    {
      "constant": false,
      "inputs": [
        {
          "name": "_eventId",
          "type": "uint256"
        },
        {
          "name": "_level",
          "type": "uint8"
        },
        {
          "name": "_numDays",
          "type": "uint8"
        }
      ],
      "name": "promoteEvent",
      "outputs": [],
      "payable": true,
      "stateMutability": "payable",
      "type": "function"
    },
    {
      "constant": true,
      "inputs": [
        {
          "name": "_level",
          "type": "uint8"
        }
      ],
      "name": "getPromotionLevelPrice",
      "outputs": [
        {
          "name": "",
          "type": "uint256"
        }
      ],
      "payable": false,
      "stateMutability": "view",
      "type": "function"
    },
    {
      "constant": true,
      "inputs": [
        {
          "name": "_ticketTypeId",
          "type": "uint256"
        }
      ],
      "name": "getTicketType",
      "outputs": [
        {
          "name": "ticketTypeId",
          "type": "uint256"
        },
        {
          "name": "eventId",
          "type": "uint256"
        },
        {
          "name": "price",
          "type": "uint256"
        },
        {
          "name": "initialSupply",
          "type": "uint256"
        },
        {
          "name": "currentSupply",
          "type": "uint256"
        },
        {
          "name": "refundable",
          "type": "uint8"
        }
      ],
      "payable": false,
      "stateMutability": "view",
      "type": "function"
    },
    {
      "constant": true,
      "inputs": [
        {
          "name": "_ticketId",
          "type": "uint256"
        }
      ],
      "name": "getTicketRefundValue",
      "outputs": [
        {
          "name": "",
          "type": "uint256"
        }
      ],
      "payable": false,
      "stateMutability": "view",
      "type": "function"
    },
    {
      "constant": true,
      "inputs": [
        {
          "name": "_eventId",
          "type": "uint256"
        }
      ],
      "name": "getEvent",
      "outputs": [
        {
          "name": "timestamp",
          "type": "uint256"
        },
        {
          "name": "metaDescriptionHash",
          "type": "bytes"
        },
        {
          "name": "cancelled",
          "type": "uint8"
        },
        {
          "name": "ticketTypeCount",
          "type": "uint256"
        },
        {
          "name": "earnings",
          "type": "uint256"
        },
        {
          "name": "promotionLevel",
          "type": "uint8"
        },
        {
          "name": "promotionExpirationDate",
          "type": "uint256"
        }
      ],
      "payable": false,
      "stateMutability": "view",
      "type": "function"
    },
    {
      "constant": true,
      "inputs": [
        {
          "name": "_creator",
          "type": "address"
        }
      ],
      "name": "getEventIdsForCreator",
      "outputs": [
        {
          "name": "",
          "type": "uint256[]"
        }
      ],
      "payable": false,
      "stateMutability": "view",
      "type": "function"
    },
    {
      "constant": true,
      "inputs": [
        {
          "name": "_ticketId",
          "type": "uint256"
        }
      ],
      "name": "getTicketTypeForTicket",
      "outputs": [
        {
          "name": "",
          "type": "uint256"
        },
        {
          "name": "",
          "type": "uint256"
        },
        {
          "name": "",
          "type": "uint256"
        },
        {
          "name": "",
          "type": "uint256"
        },
        {
          "name": "",
          "type": "uint256"
        },
        {
          "name": "",
          "type": "uint8"
        }
      ],
      "payable": false,
      "stateMutability": "view",
      "type": "function"
    },
    {
      "constant": true,
      "inputs": [
        {
          "name": "_eventId",
          "type": "uint256"
        },
        {
          "name": "_index",
          "type": "uint256"
        }
      ],
      "name": "getTicketTypeForEvent",
      "outputs": [
        {
          "name": "",
          "type": "uint256"
        },
        {
          "name": "",
          "type": "uint256"
        },
        {
          "name": "",
          "type": "uint256"
        },
        {
          "name": "",
          "type": "uint256"
        },
        {
          "name": "",
          "type": "uint256"
        },
        {
          "name": "",
          "type": "uint8"
        }
      ],
      "payable": false,
      "stateMutability": "view",
      "type": "function"
    },
    {
      "constant": true,
      "inputs": [],
      "name": "getTicketTypeCount",
      "outputs": [
        {
          "name": "",
          "type": "uint256"
        }
      ],
      "payable": false,
      "stateMutability": "view",
      "type": "function"
    },
    {
      "constant": true,
      "inputs": [],
      "name": "getOneUSDCentInWei",
      "outputs": [
        {
          "name": "",
          "type": "uint256"
        }
      ],
      "payable": false,
      "stateMutability": "view",
      "type": "function"
    },
    {
      "constant": true,
      "inputs": [
        {
          "name": "_ticketId",
          "type": "uint256"
        },
        {
          "name": "_ticketIdHash",
          "type": "bytes32"
        },
        {
          "name": "_addr",
          "type": "address"
        },
        {
          "name": "_v",
          "type": "uint8"
        },
        {
          "name": "_r",
          "type": "bytes32"
        },
        {
          "name": "_s",
          "type": "bytes32"
        }
      ],
      "name": "verifyTicket",
      "outputs": [
        {
          "name": "",
          "type": "bool"
        }
      ],
      "payable": false,
      "stateMutability": "view",
      "type": "function"
    }
  ],
  "bytecode": "0x6080604052732cde56e5c8235d6360ccbb0c57ce248ca9c80909600760006101000a81548173ffffffffffffffffffffffffffffffffffffffff021916908373ffffffffffffffffffffffffffffffffffffffff16021790555060006008553480156200006b57600080fd5b5062000076620004cb565b6200008062000511565b336000806101000a81548173ffffffffffffffffffffffffffffffffffffffff021916908373ffffffffffffffffffffffffffffffffffffffff16021790555033600160006101000a81548173ffffffffffffffffffffffffffffffffffffffff021916908373ffffffffffffffffffffffffffffffffffffffff16021790555033600360006101000a81548173ffffffffffffffffffffffffffffffffffffffff021916908373ffffffffffffffffffffffffffffffffffffffff16021790555033600260006101000a81548173ffffffffffffffffffffffffffffffffffffffff021916908373ffffffffffffffffffffffffffffffffffffffff1602179055506001600460003373ffffffffffffffffffffffffffffffffffffffff1673ffffffffffffffffffffffffffffffffffffffff16815260200190815260200160002060006101000a81548160ff021916908315150217905550600760009054906101000a900473ffffffffffffffffffffffffffffffffffffffff16600660006101000a81548173ffffffffffffffffffffffffffffffffffffffff021916908373ffffffffffffffffffffffffffffffffffffffff16021790555060c060405190810160405280600081526020016020604051908101604052806000815250815260200160008152602001600060ff168152602001600060038111156200028657fe5b815260200160008152509150600b8290806001815401808255809150509060018203906000526020600020906005020160009091929091909150600082015181600001556020820151816001019080519060200190620002e892919062000544565b506040820151816002015560608201518160030160006101000a81548160ff021916908360ff16021790555060808201518160030160016101000a81548160ff021916908360038111156200033957fe5b021790555060a0820151816004015550505060a06040519081016040528060008152602001600081526020016000815260200160008152602001600060ff168152509050600a81908060018154018082558091505090600182039060005260206000209060050201600090919290919091506000820151816000015560208201518160010155604082015181600201556060820151816003015560808201518160040160006101000a81548160ff021916908360ff1602179055505050506200041d6001600c54620004ae6401000000000262003798179091906401000000009004565b600c81905550600a60096000600160038111156200043757fe5b60ff1660ff16815260200190815260200160002081905550601460096000600260038111156200046357fe5b60ff1660ff16815260200190815260200160002081905550601e600960006003808111156200048e57fe5b60ff1660ff168152602001908152602001600020819055505050620005f3565b60008183019050828110151515620004c257fe5b80905092915050565b60c060405190810160405280600081526020016060815260200160008152602001600060ff168152602001600060038111156200050457fe5b8152602001600081525090565b60a06040519081016040528060008152602001600081526020016000815260200160008152602001600060ff1681525090565b828054600181600116156101000203166002900490600052602060002090601f016020900481019282601f106200058757805160ff1916838001178555620005b8565b82800160010185558215620005b8579182015b82811115620005b75782518255916020019190600101906200059a565b5b509050620005c79190620005cb565b5090565b620005f091905b80821115620005ec576000816000905550600101620005d2565b5090565b90565b613a5280620006036000396000f3006080604052600436106101e3576000357c0100000000000000000000000000000000000000000000000000000000900463ffffffff1680630519ce79146101e85780630a0f81681461023f5780630f6b4c341461029657806313bea5ab146102d757806313edec8414610364578063163e0f46146103ce5780631785f53c1461043857806327d7874c1461047b5780632ba73c15146104be578063347cdb15146105015780633f69babd1461052c578063443049791461055957806345243120146105935780634e0a3379146105d65780635398a62c1461061957806366008bfb1461064657806367dd74ca146106715780636af04a57146106915780636d1884e0146106e857806370480275146107c457806370a0823114610807578063715879881461085e57806375774100146108a157806384abfd16146108ce5780638842c5d31461090f5780638c95e565146109a75780638da5cb5b14610a435780638f4332de14610a9a57806399c9f47414610b0e578063aa8f17d414610b6f578063b00bd08b14610c07578063b047fb5014610c32578063d0c494db14610c89578063d4175e5c14610cce578063d6b3eeef14610d08578063d9e48f5c14610d3f578063e2a5f2be14610d6a578063f2fde38b14610dae578063f35ec83014610df1575b600080fd5b3480156101f457600080fd5b506101fd610e3f565b604051808273ffffffffffffffffffffffffffffffffffffffff1673ffffffffffffffffffffffffffffffffffffffff16815260200191505060405180910390f35b34801561024b57600080fd5b50610254610e65565b604051808273ffffffffffffffffffffffffffffffffffffffff1673ffffffffffffffffffffffffffffffffffffffff16815260200191505060405180910390f35b3480156102a257600080fd5b506102c160048036038101908080359060200190929190505050610e8b565b6040518082815260200191505060405180910390f35b3480156102e357600080fd5b5061036260048036038101908080359060200190929190803590602001908201803590602001919091929391929390803590602001908201803590602001919091929391929390803590602001908201803590602001919091929391929390803590602001908201803590602001919091929391929390505050610eff565b005b34801561037057600080fd5b5061038f6004803603810190808035906020019092919050505061126d565b604051808781526020018681526020018581526020018481526020018381526020018260ff1660ff168152602001965050505050505060405180910390f35b3480156103da57600080fd5b506103f9600480360381019080803590602001909291905050506112ad565b604051808781526020018681526020018581526020018481526020018381526020018260ff1660ff168152602001965050505050505060405180910390f35b34801561044457600080fd5b50610479600480360381019080803573ffffffffffffffffffffffffffffffffffffffff169060200190929190505050611314565b005b34801561048757600080fd5b506104bc600480360381019080803573ffffffffffffffffffffffffffffffffffffffff16906020019092919050505061147b565b005b3480156104ca57600080fd5b506104ff600480360381019080803573ffffffffffffffffffffffffffffffffffffffff169060200190929190505050611557565b005b34801561050d57600080fd5b50610516611633565b6040518082815260200191505060405180910390f35b34801561053857600080fd5b5061055760048036038101908080359060200190929190505050611707565b005b34801561056557600080fd5b50610591600480360381019080803560ff16906020019092919080359060200190929190505050611802565b005b34801561059f57600080fd5b506105d4600480360381019080803573ffffffffffffffffffffffffffffffffffffffff169060200190929190505050611a54565b005b3480156105e257600080fd5b50610617600480360381019080803573ffffffffffffffffffffffffffffffffffffffff169060200190929190505050611be5565b005b34801561062557600080fd5b5061064460048036038101908080359060200190929190505050611cc1565b005b34801561065257600080fd5b5061065b611e3f565b6040518082815260200191505060405180910390f35b61068f60048036038101908080359060200190929190505050611e4f565b005b34801561069d57600080fd5b506106a66121b6565b604051808273ffffffffffffffffffffffffffffffffffffffff1673ffffffffffffffffffffffffffffffffffffffff16815260200191505060405180910390f35b3480156106f457600080fd5b50610713600480360381019080803590602001909291905050506121dc565b60405180888152602001806020018760ff1660ff1681526020018681526020018581526020018460ff1660ff168152602001838152602001828103825288818151815260200191508051906020019080838360005b83811015610783578082015181840152602081019050610768565b50505050905090810190601f1680156107b05780820380516001836020036101000a031916815260200191505b509850505050505050505060405180910390f35b3480156107d057600080fd5b50610805600480360381019080803573ffffffffffffffffffffffffffffffffffffffff169060200190929190505050612383565b005b34801561081357600080fd5b50610848600480360381019080803573ffffffffffffffffffffffffffffffffffffffff169060200190929190505050612526565b6040518082815260200191505060405180910390f35b34801561086a57600080fd5b5061089f600480360381019080803573ffffffffffffffffffffffffffffffffffffffff169060200190929190505050612572565b005b3480156108ad57600080fd5b506108cc60048036038101908080359060200190929190505050612675565b005b3480156108da57600080fd5b506108f9600480360381019080803590602001909291905050506129b0565b6040518082815260200191505060405180910390f35b34801561091b57600080fd5b50610950600480360381019080803573ffffffffffffffffffffffffffffffffffffffff169060200190929190505050612a78565b6040518080602001828103825283818151815260200191508051906020019060200280838360005b83811015610993578082015181840152602081019050610978565b505050509050019250505060405180910390f35b3480156109b357600080fd5b50610a29600480360381019080803590602001909291908035600019169060200190929190803573ffffffffffffffffffffffffffffffffffffffff169060200190929190803560ff16906020019092919080356000191690602001909291908035600019169060200190929190505050612b0f565b604051808215151515815260200191505060405180910390f35b348015610a4f57600080fd5b50610a58612b9f565b604051808273ffffffffffffffffffffffffffffffffffffffff1673ffffffffffffffffffffffffffffffffffffffff16815260200191505060405180910390f35b348015610aa657600080fd5b50610acf6004803603810190808035906020019092919080359060200190929190505050612bc4565b604051808781526020018681526020018581526020018481526020018381526020018260ff1660ff168152602001965050505050505060405180910390f35b348015610b1a57600080fd5b50610b59600480360381019080803573ffffffffffffffffffffffffffffffffffffffff16906020019092919080359060200190929190505050612c1c565b6040518082815260200191505060405180910390f35b348015610b7b57600080fd5b50610bb0600480360381019080803573ffffffffffffffffffffffffffffffffffffffff169060200190929190505050612ce2565b6040518080602001828103825283818151815260200191508051906020019060200280838360005b83811015610bf3578082015181840152602081019050610bd8565b505050509050019250505060405180910390f35b348015610c1357600080fd5b50610c1c612e4e565b6040518082815260200191505060405180910390f35b348015610c3e57600080fd5b50610c47612f23565b604051808273ffffffffffffffffffffffffffffffffffffffff1673ffffffffffffffffffffffffffffffffffffffff16815260200191505060405180910390f35b348015610c9557600080fd5b50610ccc60048036038101908080359060200190929190803590602001908201803590602001919091929391929390505050612f49565b005b610d0660048036038101908080359060200190929190803560ff169060200190929190803560ff169060200190929190505050612fed565b005b348015610d1457600080fd5b50610d3d6004803603810190808035906020019092919080359060200190929190505050613258565b005b348015610d4b57600080fd5b50610d546132fe565b6040518082815260200191505060405180910390f35b348015610d7657600080fd5b50610d98600480360381019080803560ff16906020019092919050505061331e565b6040518082815260200191505060405180910390f35b348015610dba57600080fd5b50610def600480360381019080803573ffffffffffffffffffffffffffffffffffffffff169060200190929190505050613469565b005b348015610dfd57600080fd5b50610e3d600480360381019080803590602001909291908035906020019092919080359060200190929190803560ff1690602001909291905050506135be565b005b600260009054906101000a900473ffffffffffffffffffffffffffffffffffffffff1681565b600160009054906101000a900473ffffffffffffffffffffffffffffffffffffffff1681565b600080600a600e600085815260200190815260200160002054815481101515610eb057fe5b9060005260206000209060050201905060018160040160009054906101000a900460ff1660ff16141515610ee357600080fd5b6014600084815260200190815260200160002054915050919050565b610f07613889565b600080428c111515610f1857600080fd5b600089899050118015610f3057508686905089899050145b8015610f4157508484905089899050145b1515610f4c57600080fd5b60c0604051908101604052808d81526020018c8c8080601f016020809104026020016040519081016040528093929190818152602001838380828437820191505050505050815260200160008152602001600060ff16815260200160006003811115610fb457fe5b8152602001600081525092506001600b84908060018154018082558091505090600182039060005260206000209060050201600090919290919091506000820151816000015560208201518160010190805190602001906110169291906138ce565b506040820151816002015560608201518160030160006101000a81548160ff021916908360ff16021790555060808201518160030160016101000a81548160ff0219169083600381111561106657fe5b021790555060a08201518160040155505003915033600f600084815260200190815260200160002060006101000a81548173ffffffffffffffffffffffffffffffffffffffff021916908373ffffffffffffffffffffffffffffffffffffffff16021790555061111f6001601060003373ffffffffffffffffffffffffffffffffffffffff1673ffffffffffffffffffffffffffffffffffffffff1681526020019081526020016000205461379890919063ffffffff16565b601060003373ffffffffffffffffffffffffffffffffffffffff1673ffffffffffffffffffffffffffffffffffffffff168152602001908152602001600020819055507f263b8c982895fbe8f474fd5750a94f9bc7df584aad4f354ed2aef8c32ab8423c828d8d8d3360405180868152602001858152602001806020018373ffffffffffffffffffffffffffffffffffffffff1673ffffffffffffffffffffffffffffffffffffffff16815260200182810382528585828181526020019250808284378201915050965050505050505060405180910390a1600090505b8888905081101561125f57611252828a8a84818110151561121957fe5b90506020020135898985818110151561122e57fe5b90506020020135888886818110151561124357fe5b9050602002013560ff166135be565b80806001019150506111fc565b505050505050505050505050565b6000806000806000806000600e6000898152602001908152602001600020549050611297816112ad565b9650965096509650965096505091939550919395565b6000806000806000806000600a888154811015156112c757fe5b90600052602060002090600502019050879650806000015495508060010154945080600201549350806003015492508060040160009054906101000a900460ff1691505091939550919395565b600360009054906101000a900473ffffffffffffffffffffffffffffffffffffffff1673ffffffffffffffffffffffffffffffffffffffff163373ffffffffffffffffffffffffffffffffffffffff1614806113bd5750600160009054906101000a900473ffffffffffffffffffffffffffffffffffffffff1673ffffffffffffffffffffffffffffffffffffffff163373ffffffffffffffffffffffffffffffffffffffff16145b806114155750600260009054906101000a900473ffffffffffffffffffffffffffffffffffffffff1673ffffffffffffffffffffffffffffffffffffffff163373ffffffffffffffffffffffffffffffffffffffff16145b151561142057600080fd5b6000600460008373ffffffffffffffffffffffffffffffffffffffff1673ffffffffffffffffffffffffffffffffffffffff16815260200190815260200160002060006101000a81548160ff02191690831515021790555050565b600160009054906101000a900473ffffffffffffffffffffffffffffffffffffffff1673ffffffffffffffffffffffffffffffffffffffff163373ffffffffffffffffffffffffffffffffffffffff161415156114d757600080fd5b600073ffffffffffffffffffffffffffffffffffffffff168173ffffffffffffffffffffffffffffffffffffffff161415151561151357600080fd5b80600160006101000a81548173ffffffffffffffffffffffffffffffffffffffff021916908373ffffffffffffffffffffffffffffffffffffffff16021790555050565b600160009054906101000a900473ffffffffffffffffffffffffffffffffffffffff1673ffffffffffffffffffffffffffffffffffffffff163373ffffffffffffffffffffffffffffffffffffffff161415156115b357600080fd5b600073ffffffffffffffffffffffffffffffffffffffff168173ffffffffffffffffffffffffffffffffffffffff16141515156115ef57600080fd5b80600360006101000a81548173ffffffffffffffffffffffffffffffffffffffff021916908373ffffffffffffffffffffffffffffffffffffffff16021790555050565b6000600660009054906101000a900473ffffffffffffffffffffffffffffffffffffffff1673ffffffffffffffffffffffffffffffffffffffff16630c560c6460006040518263ffffffff167c010000000000000000000000000000000000000000000000000000000002815260040180828152602001915050602060405180830381600087803b1580156116c757600080fd5b505af11580156116db573d6000803e3d6000fd5b505050506040513d60208110156116f157600080fd5b8101908080519060200190929190505050905090565b6000813373ffffffffffffffffffffffffffffffffffffffff16600f600083815260200190815260200160002060009054906101000a900473ffffffffffffffffffffffffffffffffffffffff1673ffffffffffffffffffffffffffffffffffffffff1614151561177757600080fd5b600b8381548110151561178657fe5b906000526020600020906005020191504282600001541115156117a857600080fd5b60018260030160006101000a81548160ff021916908360ff1602179055507f14b51db3bb73d9fc2f73ef9a292fe180b35b0ac1d9285a7520e01b7e05b91bf8836040518082815260200191505060405180910390a1505050565b816001600381111561181057fe5b60ff168160ff16148061183457506002600381111561182b57fe5b60ff168160ff16145b8061184f575060038081111561184657fe5b60ff168160ff16145b151561185a57600080fd5b600360009054906101000a900473ffffffffffffffffffffffffffffffffffffffff1673ffffffffffffffffffffffffffffffffffffffff163373ffffffffffffffffffffffffffffffffffffffff1614806119035750600160009054906101000a900473ffffffffffffffffffffffffffffffffffffffff1673ffffffffffffffffffffffffffffffffffffffff163373ffffffffffffffffffffffffffffffffffffffff16145b8061195b5750600260009054906101000a900473ffffffffffffffffffffffffffffffffffffffff1673ffffffffffffffffffffffffffffffffffffffff163373ffffffffffffffffffffffffffffffffffffffff16145b151561196657600080fd5b600660009054906101000a900473ffffffffffffffffffffffffffffffffffffffff1673ffffffffffffffffffffffffffffffffffffffff16630c560c64836040518263ffffffff167c010000000000000000000000000000000000000000000000000000000002815260040180828152602001915050602060405180830381600087803b1580156119f757600080fd5b505af1158015611a0b573d6000803e3d6000fd5b505050506040513d6020811015611a2157600080fd5b8101908080519060200190929190505050600960008560ff1660ff16815260200190815260200160002081905550505050565b600360009054906101000a900473ffffffffffffffffffffffffffffffffffffffff1673ffffffffffffffffffffffffffffffffffffffff163373ffffffffffffffffffffffffffffffffffffffff161480611afd5750600160009054906101000a900473ffffffffffffffffffffffffffffffffffffffff1673ffffffffffffffffffffffffffffffffffffffff163373ffffffffffffffffffffffffffffffffffffffff16145b80611b555750600260009054906101000a900473ffffffffffffffffffffffffffffffffffffffff1673ffffffffffffffffffffffffffffffffffffffff163373ffffffffffffffffffffffffffffffffffffffff16145b1515611b6057600080fd5b80600760006101000a81548173ffffffffffffffffffffffffffffffffffffffff021916908373ffffffffffffffffffffffffffffffffffffffff16021790555080600660006101000a81548173ffffffffffffffffffffffffffffffffffffffff021916908373ffffffffffffffffffffffffffffffffffffffff16021790555050565b600160009054906101000a900473ffffffffffffffffffffffffffffffffffffffff1673ffffffffffffffffffffffffffffffffffffffff163373ffffffffffffffffffffffffffffffffffffffff16141515611c4157600080fd5b600073ffffffffffffffffffffffffffffffffffffffff168173ffffffffffffffffffffffffffffffffffffffff1614151515611c7d57600080fd5b80600260006101000a81548173ffffffffffffffffffffffffffffffffffffffff021916908373ffffffffffffffffffffffffffffffffffffffff16021790555050565b600080823373ffffffffffffffffffffffffffffffffffffffff16600f600083815260200190815260200160002060009054906101000a900473ffffffffffffffffffffffffffffffffffffffff1673ffffffffffffffffffffffffffffffffffffffff16141515611d3257600080fd5b600b84815481101515611d4157fe5b90600052602060002090600502019250428360000154111515611d6357600080fd5b60008360020154111515611d7657600080fd5b82600201549150600083600201819055503373ffffffffffffffffffffffffffffffffffffffff166108fc839081150290604051600060405180830381858888f19350505050158015611dcd573d6000803e3d6000fd5b507f7fcf532c15f0a6db0bd6d0e038bea71d30d808c7d98cb3bf7268a95bf5081b653383604051808373ffffffffffffffffffffffffffffffffffffffff1673ffffffffffffffffffffffffffffffffffffffff1681526020018281526020019250505060405180910390a150505050565b60006001600a8054905003905090565b6000806000600a84815481101515611e6357fe5b90600052602060002090600502019250600b8360000154815481101515611e8657fe5b906000526020600020906005020191506000836000015414151515611eaa57600080fd5b42600b8460000154815481101515611ebe57fe5b906000526020600020906005020160000154111515611edc57600080fd5b60008360030154111515611eef57600080fd5b600660009054906101000a900473ffffffffffffffffffffffffffffffffffffffff1673ffffffffffffffffffffffffffffffffffffffff16630c560c646008546040518263ffffffff167c010000000000000000000000000000000000000000000000000000000002815260040180828152602001915050602060405180830381600087803b158015611f8257600080fd5b505af1158015611f96573d6000803e3d6000fd5b505050506040513d6020811015611fac57600080fd5b810190808051906020019092919050505083600101540234141515611fd057600080fd5b611fe734836002015461379890919063ffffffff16565b8260020181905550612007600184600301546137b490919063ffffffff16565b83600301819055503460146000600c548152602001908152602001600020819055503360116000600c54815260200190815260200160002060006101000a81548173ffffffffffffffffffffffffffffffffffffffff021916908373ffffffffffffffffffffffffffffffffffffffff16021790555083600e6000600c548152602001908152602001600020819055506120a033612526565b9050601260003373ffffffffffffffffffffffffffffffffffffffff1673ffffffffffffffffffffffffffffffffffffffff168152602001908152602001600020600c5490806001815401808255809150509060018203906000526020600020016000909192909190915055508060136000600c548152602001908152602001600020819055507f23185667fbe4fe155ce70ec5978bcaaccf7b774f88cfb256ddef7d092c92e021600c5433604051808381526020018273ffffffffffffffffffffffffffffffffffffffff1673ffffffffffffffffffffffffffffffffffffffff1681526020019250505060405180910390a16121aa6001600c5461379890919063ffffffff16565b600c8190555050505050565b600560009054906101000a900473ffffffffffffffffffffffffffffffffffffffff1681565b60006060600080600080600080600073ffffffffffffffffffffffffffffffffffffffff16600f60008b815260200190815260200160002060009054906101000a900473ffffffffffffffffffffffffffffffffffffffff1673ffffffffffffffffffffffffffffffffffffffff161415151561225857600080fd5b600b8981548110151561226757fe5b9060005260206000209060050201905080600001549750806001018054600181600116156101000203166002900480601f0160208091040260200160405190810160405280929190818152602001828054600181600116156101000203166002900480156123165780601f106122eb57610100808354040283529160200191612316565b820191906000526020600020905b8154815290600101906020018083116122f957829003601f168201915b505050505096508060030160009054906101000a900460ff169550600d60008a8152602001908152602001600020805490509450806002015493508060030160019054906101000a900460ff16600381111561236e57fe5b92508060040154915050919395979092949650565b600360009054906101000a900473ffffffffffffffffffffffffffffffffffffffff1673ffffffffffffffffffffffffffffffffffffffff163373ffffffffffffffffffffffffffffffffffffffff16148061242c5750600160009054906101000a900473ffffffffffffffffffffffffffffffffffffffff1673ffffffffffffffffffffffffffffffffffffffff163373ffffffffffffffffffffffffffffffffffffffff16145b806124845750600260009054906101000a900473ffffffffffffffffffffffffffffffffffffffff1673ffffffffffffffffffffffffffffffffffffffff163373ffffffffffffffffffffffffffffffffffffffff16145b151561248f57600080fd5b600073ffffffffffffffffffffffffffffffffffffffff168173ffffffffffffffffffffffffffffffffffffffff16141515156124cb57600080fd5b6001600460008373ffffffffffffffffffffffffffffffffffffffff1673ffffffffffffffffffffffffffffffffffffffff16815260200190815260200160002060006101000a81548160ff02191690831515021790555050565b6000601260008373ffffffffffffffffffffffffffffffffffffffff1673ffffffffffffffffffffffffffffffffffffffff168152602001908152602001600020805490509050919050565b600160009054906101000a900473ffffffffffffffffffffffffffffffffffffffff1673ffffffffffffffffffffffffffffffffffffffff163373ffffffffffffffffffffffffffffffffffffffff161415156125ce57600080fd5b80600560006101000a81548173ffffffffffffffffffffffffffffffffffffffff021916908373ffffffffffffffffffffffffffffffffffffffff1602179055507f450db8da6efbe9c22f2347f7c2021231df1fc58d3ae9a2fa75d39fa44619930581604051808273ffffffffffffffffffffffffffffffffffffffff1673ffffffffffffffffffffffffffffffffffffffff16815260200191505060405180910390a150565b6000806000833373ffffffffffffffffffffffffffffffffffffffff166011600083815260200190815260200160002060009054906101000a900473ffffffffffffffffffffffffffffffffffffffff1673ffffffffffffffffffffffffffffffffffffffff161415156126e857600080fd5b600a600e60008781526020019081526020016000205481548110151561270a57fe5b90600052602060002090600502019350600b846000015481548110151561272d57fe5b9060005260206000209060050201925060006014600087815260200190815260200160002054118015612774575060018360030160009054906101000a900460ff1660ff16145b80612793575060018460040160009054906101000a900460ff1660ff16145b151561279e57600080fd5b6127b66001856003015461379890919063ffffffff16565b84600301819055506127d9846001015484600201546137b490919063ffffffff16565b836002018190555060006011600087815260200190815260200160002060006101000a81548173ffffffffffffffffffffffffffffffffffffffff021916908373ffffffffffffffffffffffffffffffffffffffff1602179055506000601260003373ffffffffffffffffffffffffffffffffffffffff1673ffffffffffffffffffffffffffffffffffffffff168152602001908152602001600020601360008881526020019081526020016000205481548110151561289557fe5b90600052602060002001819055506000601360008781526020019081526020016000208190555060146000868152602001908152602001600020549150600060146000878152602001908152602001600020819055503373ffffffffffffffffffffffffffffffffffffffff166108fc839081150290604051600060405180830381858888f19350505050158015612931573d6000803e3d6000fd5b507fb56b591803cc7bbb211b8af54a52c3a403e25fb272b9b853e59f42cef9e41d9885338660000154604051808481526020018373ffffffffffffffffffffffffffffffffffffffff1673ffffffffffffffffffffffffffffffffffffffff168152602001828152602001935050505060405180910390a15050505050565b600080600073ffffffffffffffffffffffffffffffffffffffff16600f600085815260200190815260200160002060009054906101000a900473ffffffffffffffffffffffffffffffffffffffff1673ffffffffffffffffffffffffffffffffffffffff1614151515612a2257600080fd5b600090505b600a80549050811015612a725782600a82815481101515612a4457fe5b9060005260206000209060050201600001541415612a655781806001019250505b8080600101915050612a27565b50919050565b6060601260008373ffffffffffffffffffffffffffffffffffffffff1673ffffffffffffffffffffffffffffffffffffffff168152602001908152602001600020805480602002602001604051908101604052809291908181526020018280548015612b0357602002820191906000526020600020905b815481526020019060010190808311612aef575b50505050509050919050565b6000806000612b2187898888886137cd565b91508673ffffffffffffffffffffffffffffffffffffffff16601160008b815260200190815260200160002060009054906101000a900473ffffffffffffffffffffffffffffffffffffffff1673ffffffffffffffffffffffffffffffffffffffff16149050818015612b915750805b925050509695505050505050565b6000809054906101000a900473ffffffffffffffffffffffffffffffffffffffff1681565b6000806000806000806000600d60008a815260200190815260200160002088815481101515612bef57fe5b90600052602060002001549050612c05816112ad565b965096509650965096509650509295509295509295565b600080601260008573ffffffffffffffffffffffffffffffffffffffff1673ffffffffffffffffffffffffffffffffffffffff16815260200190815260200160002083815481101515612c6b57fe5b906000526020600020015414151515612c8357600080fd5b601260008473ffffffffffffffffffffffffffffffffffffffff1673ffffffffffffffffffffffffffffffffffffffff16815260200190815260200160002082815481101515612ccf57fe5b9060005260206000200154905092915050565b606080600080600073ffffffffffffffffffffffffffffffffffffffff168573ffffffffffffffffffffffffffffffffffffffff1614151515612d2457600080fd5b601060008673ffffffffffffffffffffffffffffffffffffffff1673ffffffffffffffffffffffffffffffffffffffff16815260200190815260200160002054604051908082528060200260200182016040528015612d925781602001602082028038833980820191505090505b50925060009150600190505b600b80549050811015612e43578473ffffffffffffffffffffffffffffffffffffffff16600f600083815260200190815260200160002060009054906101000a900473ffffffffffffffffffffffffffffffffffffffff1673ffffffffffffffffffffffffffffffffffffffff161415612e3657808383806001019450815181101515612e2757fe5b90602001906020020181815250505b8080600101915050612d9e565b829350505050919050565b6000600660009054906101000a900473ffffffffffffffffffffffffffffffffffffffff1673ffffffffffffffffffffffffffffffffffffffff16630c560c646008546040518263ffffffff167c010000000000000000000000000000000000000000000000000000000002815260040180828152602001915050602060405180830381600087803b158015612ee357600080fd5b505af1158015612ef7573d6000803e3d6000fd5b505050506040513d6020811015612f0d57600080fd5b8101908080519060200190929190505050905090565b600360009054906101000a900473ffffffffffffffffffffffffffffffffffffffff1681565b823373ffffffffffffffffffffffffffffffffffffffff16600f600083815260200190815260200160002060009054906101000a900473ffffffffffffffffffffffffffffffffffffffff1673ffffffffffffffffffffffffffffffffffffffff16141515612fb757600080fd5b8282600b86815481101515612fc857fe5b90600052602060002090600502016001019190612fe692919061394e565b5050505050565b600080843373ffffffffffffffffffffffffffffffffffffffff16600f600083815260200190815260200160002060009054906101000a900473ffffffffffffffffffffffffffffffffffffffff1673ffffffffffffffffffffffffffffffffffffffff1614151561305e57600080fd5b846001600381111561306c57fe5b60ff168160ff16148061309057506002600381111561308757fe5b60ff168160ff16145b806130ab57506003808111156130a257fe5b60ff168160ff16145b15156130b657600080fd5b600b878154811015156130c557fe5b9060005260206000209060050201935060008460030160009054906101000a900460ff1660ff1614806130fb5750428460000154115b151561310657600080fd5b600660009054906101000a900473ffffffffffffffffffffffffffffffffffffffff1673ffffffffffffffffffffffffffffffffffffffff16630c560c646008546040518263ffffffff167c010000000000000000000000000000000000000000000000000000000002815260040180828152602001915050602060405180830381600087803b15801561319957600080fd5b505af11580156131ad573d6000803e3d6000fd5b505050506040513d60208110156131c357600080fd5b8101908080519060200190929190505050600960008860ff1660ff168152602001908152602001600020540292508460ff1683023414151561320457600080fd5b8560ff16600381111561321357fe5b8460030160016101000a81548160ff0219169083600381111561323257fe5b0217905550620151808560ff160262ffffff164201846004018190555050505050505050565b813373ffffffffffffffffffffffffffffffffffffffff16600f600083815260200190815260200160002060009054906101000a900473ffffffffffffffffffffffffffffffffffffffff1673ffffffffffffffffffffffffffffffffffffffff161415156132c657600080fd5b42821115156132d457600080fd5b81600b848154811015156132e457fe5b906000526020600020906005020160000181905550505050565b60006133196001600b805490506137b490919063ffffffff16565b905090565b6000816001600381111561332e57fe5b60ff168160ff16148061335257506002600381111561334957fe5b60ff168160ff16145b8061336d575060038081111561336457fe5b60ff168160ff16145b151561337857600080fd5b600660009054906101000a900473ffffffffffffffffffffffffffffffffffffffff1673ffffffffffffffffffffffffffffffffffffffff16630c560c646008546040518263ffffffff167c010000000000000000000000000000000000000000000000000000000002815260040180828152602001915050602060405180830381600087803b15801561340b57600080fd5b505af115801561341f573d6000803e3d6000fd5b505050506040513d602081101561343557600080fd5b8101908080519060200190929190505050600960008560ff1660ff1681526020019081526020016000205402915050919050565b6000809054906101000a900473ffffffffffffffffffffffffffffffffffffffff1673ffffffffffffffffffffffffffffffffffffffff163373ffffffffffffffffffffffffffffffffffffffff161415156134c457600080fd5b600073ffffffffffffffffffffffffffffffffffffffff168173ffffffffffffffffffffffffffffffffffffffff161415151561350057600080fd5b8073ffffffffffffffffffffffffffffffffffffffff166000809054906101000a900473ffffffffffffffffffffffffffffffffffffffff1673ffffffffffffffffffffffffffffffffffffffff167f8be0079c531659141344cd1fd0a4f28419497f9722a3daafe3b4186f6b6457e060405160405180910390a3806000806101000a81548173ffffffffffffffffffffffffffffffffffffffff021916908373ffffffffffffffffffffffffffffffffffffffff16021790555050565b6135c66139ce565b600080863373ffffffffffffffffffffffffffffffffffffffff16600f600083815260200190815260200160002060009054906101000a900473ffffffffffffffffffffffffffffffffffffffff1673ffffffffffffffffffffffffffffffffffffffff1614151561363757600080fd5b60008611151561364657600080fd5b60a0604051908101604052808981526020018881526020018781526020018781526020018660ff168152509350600a84908060018154018082558091505090600182039060005260206000209060050201600090919290919091506000820151816000015560208201518160010155604082015181600201556060820151816003015560808201518160040160006101000a81548160ff021916908360ff16021790555050509250600183039150600d60008981526020019081526020016000208290806001815401808255809150509060018203906000526020600020016000909192909190915055507f89f4233ba7e97c17d7d7f16839572d206d5298b07835eaa666b1bb2b715c8a328289898989604051808681526020018581526020018481526020018381526020018260ff1660ff1681526020019550505050505060405180910390a15050505050505050565b600081830190508281101515156137ab57fe5b80905092915050565b60008282111515156137c257fe5b818303905092915050565b60008573ffffffffffffffffffffffffffffffffffffffff16600186868686604051600081526020016040526040518085600019166000191681526020018460ff1660ff1681526020018360001916600019168152602001826000191660001916815260200194505050505060206040516020810390808403906000865af115801561385d573d6000803e3d6000fd5b5050506020604051035173ffffffffffffffffffffffffffffffffffffffff1614905095945050505050565b60c060405190810160405280600081526020016060815260200160008152602001600060ff168152602001600060038111156138c157fe5b8152602001600081525090565b828054600181600116156101000203166002900490600052602060002090601f016020900481019282601f1061390f57805160ff191683800117855561393d565b8280016001018555821561393d579182015b8281111561393c578251825591602001919060010190613921565b5b50905061394a9190613a01565b5090565b828054600181600116156101000203166002900490600052602060002090601f016020900481019282601f1061398f57803560ff19168380011785556139bd565b828001600101855582156139bd579182015b828111156139bc5782358255916020019190600101906139a1565b5b5090506139ca9190613a01565b5090565b60a06040519081016040528060008152602001600081526020016000815260200160008152602001600060ff1681525090565b613a2391905b80821115613a1f576000816000905550600101613a07565b5090565b905600a165627a7a7230582051c20ce3c9bdbe146103b522d73db0849a0091ac53965bed23e2dce4fb210b3c0029",
  "source": "pragma solidity ^0.4.23;\n\nimport \"./TicketAccessControl.sol\";\nimport \"../node_modules/zeppelin-solidity/contracts/math/SafeMath.sol\";\nimport \"./FiatContract.sol\";\n\ncontract SmartTickets is TicketAccessControl {\n    using SafeMath for uint;\n    \n    event EventCreation(uint id, uint date, bytes metaDescriptionHash, address creator);\n    event EventCancelation(uint id);\n    \n    event TicketTypeCreation(\n        uint ticketTypeId,\n        uint eventId,\n        uint price,\n        uint supply,\n        uint8 refundable\n    );\n    event TicketPurchase(uint ticketId, address buyer);\n    event TicketRefund(uint ticketId, address refunder, uint eventId);\n    \n    event Withdrawal(address to, uint amount);\n    \n    struct TicketType {\n        uint eventId;\n        uint priceInUSDCents;\n        uint initialSupply;\n        uint currentSupply;\n        uint8 refundable;\n    }\n    \n    struct Event {\n        uint timestamp;\n        bytes metaDescriptionHash;\n        uint earnings;\n        uint8 cancelled;\n        PromotionLevel promotionLevel;\n        uint promotionExpirationDate;\n    }\n    \n    FiatContract private fiatContract;\n    address fiatContractAddress = 0x2CDe56E5c8235D6360CCbb0c57Ce248Ca9C80909;\n    uint private FIAT_ETH_INDEX = 0;\n    \n    enum PromotionLevel { NONE, SMALL, MEDIUM, BIG }\n    mapping (uint8 => uint) promotionLevelPrices;\n\n    TicketType[] ticketTypes;\n    Event[] events;\n    uint private currentTicketIdIndex;\n    mapping (uint => uint[]) eventToTicketType;\n    mapping (uint => uint) ticketToTicketType;\n    \n    mapping (uint => address) eventIdToCreator;\n    mapping (address => uint) creatorEventCount;\n    \n    mapping (uint => address) ticketOwner;\n    mapping (address => uint[]) private ownedTickets;\n    mapping (uint => uint) private ownedTicketsIndex;\n    mapping (uint => uint) private ticketToStoredValue;\n    \n    \n    modifier onlyOwnerOf(uint _ticketId) {\n        require(ticketOwner[_ticketId] == msg.sender);\n        _;\n    }\n    \n    modifier validCreatorOfEvent(uint _eventId) {\n        require(eventIdToCreator[_eventId] == msg.sender);\n        _;\n    }\n    \n    modifier validPromotionLevel(uint8 _level) {\n        require(_level == uint8(PromotionLevel.SMALL) || \n            _level == uint8(PromotionLevel.MEDIUM) ||\n            _level == uint8(PromotionLevel.BIG));\n        _;\n    }\n\n    constructor() public {\n        // Add the contract owner as CEO, COO, CFO and admin initially\n        ceoAddress = msg.sender;\n        cooAddress = msg.sender;\n        cfoAddress = msg.sender;\n        admins[msg.sender] = true;\n        \n        // fiatContract = new FiatContractDebug();\n        fiatContract = FiatContract(fiatContractAddress);\n        \n        // Create genesis event\n        Event memory genesisEvent = Event(0, \n            \"\",\n            0, \n            0, \n            PromotionLevel.NONE,\n            0);\n        events.push(genesisEvent);\n        // Create genesis ticketType\n        TicketType memory genesisTicketType = TicketType(0, 0, 0, 0, 0);\n        ticketTypes.push(genesisTicketType);\n        // And genesis ticket\n        currentTicketIdIndex = currentTicketIdIndex.add(1);\n        \n        // Set initial promotion level prices\n        promotionLevelPrices[uint8(PromotionLevel.SMALL)] = 10;\n        promotionLevelPrices[uint8(PromotionLevel.MEDIUM)] = 20;\n        promotionLevelPrices[uint8(PromotionLevel.BIG)] = 30;\n    }\n    \n    function setFiatContractAddress(address _newAddress) external onlyCLevel {\n        fiatContractAddress = _newAddress;\n        fiatContract = FiatContract(_newAddress);\n    }\n    \n    function balanceOf(address _owner) public view returns (uint) {\n        return ownedTickets[_owner].length;\n    }\n    \n    function getTicketsForOwner(address _owner) public view returns (uint[]) {\n        return ownedTickets[_owner];\n    }\n    \n    function getTicketIdForOwner(address _owner, uint _index) \n        public\n        view\n        returns(uint)\n    {\n        require(ownedTickets[_owner][_index] != 0);\n        return ownedTickets[_owner][_index];\n    }\n    \n    function getUsdCourse() public view returns (uint) {\n        return fiatContract.USD(0);\n    }\n    \n    function buyTicket(uint _ticketTypeId) public payable {\n        TicketType storage ticketType = ticketTypes[_ticketTypeId];\n        Event storage forEvent = events[ticketType.eventId];\n        \n        require(ticketType.eventId != 0);\n        require(events[ticketType.eventId].timestamp > now);\n        require(ticketType.currentSupply > 0);\n        require(msg.value ==\n            ticketType.priceInUSDCents * fiatContract.USD(FIAT_ETH_INDEX));\n        \n        \n        forEvent.earnings = forEvent.earnings.add(msg.value);\n        ticketType.currentSupply = ticketType.currentSupply.sub(1);\n        ticketToStoredValue[currentTicketIdIndex] = msg.value;\n        \n        ticketOwner[currentTicketIdIndex] = msg.sender;\n        ticketToTicketType[currentTicketIdIndex] = _ticketTypeId;\n        uint length = balanceOf(msg.sender);\n        ownedTickets[msg.sender].push(currentTicketIdIndex);\n        ownedTicketsIndex[currentTicketIdIndex] = length;\n        emit TicketPurchase(currentTicketIdIndex, msg.sender);\n        currentTicketIdIndex = currentTicketIdIndex.add(1);\n    }\n    \n    function createEvent(uint _timestamp,\n        bytes _metaDescriptionHash,\n        uint[] _ticketPricesInUSDCents,\n        uint[] _ticketSupplies,\n        uint8[] _ticketRefundables) \n        external\n        onlyAdminOrAbove\n    {\n        require(_timestamp > now);\n        require(_ticketPricesInUSDCents.length > 0 &&\n            _ticketPricesInUSDCents.length == _ticketSupplies.length &&\n            _ticketPricesInUSDCents.length == _ticketRefundables.length);\n        \n        Event memory newEvent = Event(\n            _timestamp,\n            _metaDescriptionHash,\n            0,\n            0,\n            PromotionLevel.NONE,\n            0);\n        uint newEventId = events.push(newEvent) - 1;\n        eventIdToCreator[newEventId] = msg.sender;\n        creatorEventCount[msg.sender] = creatorEventCount[msg.sender].add(1);\n        \n        emit EventCreation(newEventId, _timestamp, _metaDescriptionHash, msg.sender);\n        \n        for (uint i = 0; i < _ticketPricesInUSDCents.length; i++) {\n            addTicketForEvent(\n                newEventId,\n                _ticketPricesInUSDCents[i],\n                _ticketSupplies[i],\n                _ticketRefundables[i]);\n        }\n    }\n    \n    function addTicketForEvent(\n        uint _eventId,\n        uint _priceInUSDCents,\n        uint _initialSupply,\n        uint8 _refundable\n    )\n        public\n        validCreatorOfEvent(_eventId)\n    {\n        require(_initialSupply > 0);\n        \n        TicketType memory ticketType = TicketType(\n            _eventId,\n            _priceInUSDCents,\n            _initialSupply,\n            _initialSupply,\n            _refundable\n        );\n        \n        uint length = ticketTypes.push(ticketType);\n        uint ticketTypeId =  length - 1;\n        \n        eventToTicketType[_eventId].push(ticketTypeId);\n        \n        emit TicketTypeCreation(\n            ticketTypeId,\n            _eventId,\n            _priceInUSDCents,\n            _initialSupply,\n            _refundable\n        );\n    }\n    \n    function refundTicket(uint _ticketId) external onlyOwnerOf(_ticketId) {\n        TicketType storage ticketType = \n            ticketTypes[ticketToTicketType[_ticketId]];\n        Event storage forEvent = events[ticketType.eventId];\n        \n        require(\n            ticketToStoredValue[_ticketId] > 0 && \n            forEvent.cancelled == 1 ||\n            ticketType.refundable == 1\n        );\n        \n        ticketType.currentSupply = ticketType.currentSupply.add(1);\n        forEvent.earnings = forEvent.earnings.sub(ticketType.priceInUSDCents);\n        \n        ticketOwner[_ticketId] = address(0);\n        ownedTickets[msg.sender][ownedTicketsIndex[_ticketId]] = 0;\n        ownedTicketsIndex[_ticketId] = 0;\n        uint refundValue = ticketToStoredValue[_ticketId];\n        ticketToStoredValue[_ticketId] = 0;\n        \n        msg.sender.transfer(refundValue);\n        emit TicketRefund(_ticketId, msg.sender, ticketType.eventId);\n    }\n    \n    function cancelEvent(uint _eventId) external validCreatorOfEvent(_eventId) {\n        Event storage eventToCancel = events[_eventId];\n        require(eventToCancel.timestamp > now);\n        eventToCancel.cancelled = 1;\n        emit EventCancelation(_eventId);\n    }\n    \n    function withdrawalEarningsForEvent(uint _eventId) \n        external\n        validCreatorOfEvent(_eventId)\n    {\n        Event storage pastEvent = events[_eventId];\n        require(pastEvent.timestamp > now);\n        require(pastEvent.earnings > 0);\n        \n        uint earnings = pastEvent.earnings;\n        pastEvent.earnings = 0;\n        \n        msg.sender.transfer(earnings);\n        emit Withdrawal(msg.sender, earnings);\n    }\n    \n    function changeEventDate(uint _id, uint _timestamp)\n        external\n        validCreatorOfEvent(_id)\n    {\n        require(_timestamp > now);\n        events[_id].timestamp = _timestamp;\n    }\n    \n    function changeEventMetaDescriptionHash(uint _id, bytes _hash)\n        external \n        validCreatorOfEvent(_id)\n    {\n        events[_id].metaDescriptionHash = _hash;\n    }\n    \n    function getEventCount() external view returns(uint) {\n        // Exclude genesis event\n        return events.length.sub(1);\n    }\n    \n    function getTicketTypesCountForEvent(uint _eventId) \n        external\n        view\n        returns(uint256 count)\n    {\n        require(eventIdToCreator[_eventId] != address(0));\n        \n        for (uint i = 0; i < ticketTypes.length; i++) {\n            if (ticketTypes[i].eventId == _eventId) {\n                count++;\n            }\n        }\n    }\n    \n    function setPromotionLevelPrice(uint8 _level, uint _newPrice) \n        external\n        validPromotionLevel(_level)\n        onlyCLevel {\n        promotionLevelPrices[uint8(_level)] = fiatContract.USD(_newPrice);\n    }\n    \n    function promoteEvent(uint _eventId, uint8 _level, uint8 _numDays)\n        validCreatorOfEvent(_eventId)\n        validPromotionLevel(_level)\n        external\n        payable {\n        Event storage forEvent = events[_eventId];\n        require(forEvent.cancelled == 0 || forEvent.timestamp > now);\n        \n        uint pricePerDay = promotionLevelPrices[uint8(_level)] \n            * fiatContract.USD(FIAT_ETH_INDEX);\n        require(msg.value == pricePerDay * _numDays);\n        \n        forEvent.promotionLevel = PromotionLevel(_level);\n        forEvent.promotionExpirationDate = now + (_numDays * 1 days);\n    }\n    \n    function getPromotionLevelPrice(uint8 _level) \n        external\n        view\n        validPromotionLevel(_level)\n        returns (uint) {\n        return promotionLevelPrices[_level] * fiatContract.USD(FIAT_ETH_INDEX);\n    }\n    \n    function getTicketType(uint _ticketTypeId) \n        public\n        view\n        returns(\n        uint ticketTypeId,\n        uint eventId,\n        uint price,\n        uint initialSupply,\n        uint currentSupply,\n        uint8 refundable\n    ) {\n        TicketType storage ticketType = ticketTypes[_ticketTypeId];\n        \n        ticketTypeId = _ticketTypeId;\n        eventId = ticketType.eventId;\n        price = ticketType.priceInUSDCents;\n        initialSupply = ticketType.initialSupply;\n        currentSupply = ticketType.currentSupply;\n        refundable = ticketType.refundable;\n    }\n    \n    function getTicketRefundValue(uint _ticketId)\n        external\n        view\n        returns(uint) {\n        TicketType storage ticketType = \n            ticketTypes[ticketToTicketType[_ticketId]];\n        require(ticketType.refundable == 1);\n        return ticketToStoredValue[_ticketId];\n    }\n    \n    function getEvent(uint _eventId) \n        external \n        view \n        returns(\n        uint timestamp,\n        bytes metaDescriptionHash,\n        uint8 cancelled,\n        uint ticketTypeCount,\n        uint earnings,\n        uint8 promotionLevel,\n        uint promotionExpirationDate\n    ) {\n        require(eventIdToCreator[_eventId] != address(0));\n        \n        Event storage searchedEvent = events[_eventId];\n        timestamp = searchedEvent.timestamp;\n        metaDescriptionHash = searchedEvent.metaDescriptionHash;\n        cancelled = searchedEvent.cancelled;\n        ticketTypeCount = eventToTicketType[_eventId].length;\n        earnings = searchedEvent.earnings;\n        promotionLevel = uint8(searchedEvent.promotionLevel);\n        promotionExpirationDate = searchedEvent.promotionExpirationDate;\n    }\n\n    function getEventIdsForCreator(address _creator) external view returns(uint[]) {\n        require(_creator != address(0));\n        \n        uint[] memory resultEvents = new uint[](creatorEventCount[_creator]);\n        uint resultIndex = 0;\n        for (uint i = 1; i < events.length; i++) {\n            if (eventIdToCreator[i] == _creator) {\n                resultEvents[resultIndex++] = i;\n            }\n        }\n        return resultEvents;\n    }\n    \n    \n    function getTicketTypeForTicket(uint _ticketId) \n        external\n        view\n        returns(\n        uint,\n        uint,\n        uint,\n        uint,\n        uint,\n        uint8\n    ) {\n        uint256 ticketTypeId = ticketToTicketType[_ticketId];\n        return getTicketType(ticketTypeId);\n    }\n    \n    function getTicketTypeForEvent(uint _eventId, uint _index)\n        external\n        view\n        returns(uint, uint, uint, uint, uint, uint8)\n    {\n        uint ticketTypeId = eventToTicketType[_eventId][_index];\n        return getTicketType(ticketTypeId);\n    }\n    \n    function getTicketTypeCount() public view returns(uint) {\n        // Exclude genesis ticketType\n        return ticketTypes.length - 1;\n    }\n    \n    function getOneUSDCentInWei() public view returns(uint) {\n        return fiatContract.USD(FIAT_ETH_INDEX);\n    }\n    \n    function verifyTicket(uint _ticketId, \n        bytes32 _ticketIdHash,\n        address _addr,\n        uint8 _v,\n        bytes32 _r,\n        bytes32 _s) \n        public\n        view\n        returns (bool) {\n        bool isSigned = _isSigned(_addr, _ticketIdHash, _v, _r, _s);\n        bool validOwner = ticketOwner[_ticketId] == _addr;\n        return isSigned && validOwner;\n    }\n    \n    function _isSigned(address _addr, \n        bytes32 _msgHash, \n        uint8 _v,\n        bytes32 _r,\n        bytes32 _s)\n        private\n        pure\n        returns (bool) {\n        return ecrecover(_msgHash, _v, _r, _s) == _addr;\n    }\n}",
  "sourcePath": "/home/ivanasen/Code/smart-tickets/contracts/SmartTickets.sol",
  "compiler": {
    "name": "solc",
    "version": "0.4.23+commit.124ca40d.Emscripten.clang"
  },
  "schemaVersion": "2.0.0",
  "updatedAt": "2018-05-08T18:16:00.921Z"
}